:100000000C948E0F0C9433100C9433100C9433100A
:100010000C9433100C9433100C9433100C94331054
:100020000C9433100C9433100C9433100C94331044
:100030000C9433100C940E110C9433100C94331058
:100040000C9433100C9433100C9433100C94331024
:100050000C9433100C9433100C9433100C94331014
:100060000C9433100C9433100C9433100C94331004
:100070005A5501200201003808000000000000006D
:1000800000000000000E1B1C1B8B1BE81ED21E1F55
:100090001B2E1B3D1BB81E4B1B591B0000051415C6
:1000A0005515550554015000400000014001400124
:1000B0004001550155014001400140000500050087
:1000C000050005000500050005000501400140018F
:1000D0004055405540000000000000014001400133
:1000E00040554055400140014001400000000000E3
:1000F00000554055400140014001400005001500F9
:100100005401500540150054005000500054001593
:1001100000054001500054001500050001000500D5
:1001200015005501550555155555550000000000A1
:100130000000000055005500550055400050005487
:100140000055005540555055545555005500550023
:1001500055005500000000000000005500550055F6
:1001600000550000000000000000005555555500E6
:10017000000000000000000000000000000000007F
:10018000000000000000005555555500000000001B
:1001900000000055005500550055000000015001B9
:1001A000501515151500400150000000000000001A
:1001B00000015501550140014001400000000000D0
:1001C0000055555555000000000000014001400158
:1001D00040555555550140014001400000000005C3
:1001E000501554155415540550000000000000002F
:1001F0000000005555555555555555500050005067
:10020000005000500050005000500000000000005E
:100210000055555555014001400140014001400144
:10022000405555555500000000000055005500553B
:100230000055005500550055005500014001400192
:100240004001550155000000000000154014001544
:100250004014001554014001540000000001400505
:1002600050155401400140014000000000014001D0
:1002700040014015540550014000000000014005B8
:10028000001554050001400000000000000140007E
:100290005015540050014000000000000000000014
:1002A000000000000000000000000000000140010C
:1002B00040014001400000014000000000141414FF
:1002C0001414140000000000000000000014145575
:1002D00055141414145555141400000140055414F9
:1002E00000055000141550014000000000141414C3
:1002F00050014005001414101400000150051401B1
:10030000500540145514140545000000000140013B
:100310004001400000000000000000000000540107
:10032000500140014001500054000000001500053C
:100330004001400140054015000000000014140574
:1003400050555505501414000000000000014001F4
:100350004015540140014000000000000000000072
:100360000000000000014001400500000000000006
:100370000015540000000000000000000000000014
:1003800000000000000140014000000000001400D7
:10039000500140050014001000000000000550143A
:1003A00014145415141414055000000000014005E5
:1003B0004001400140014015540000000005501468
:1003C00014005001400500155400000000155400B1
:1003D000500140005014140550000000000050016E
:1003E00050055014501554005000000000155414CE
:1003F000001550001414140550000000000550149E
:100400000015501414141405500000000015540079
:1004100014005001400500050000000000055014C4
:100420001405501414141405500000000005501455
:1004300014055400140050054000000000000001A5
:1004400040014000000140014000000000000001A8
:10045000400140000001400140050000140050012F
:10046000400500014000500014000000000000158D
:1004700054000000001554000000001400050001A5
:100480004000500140050014000000000005501419
:10049000140050014000000140000000000550140D
:1004A00014145414541400055400000000014005B5
:1004B0005014141414155414140000000015501492
:1004C0001415501414141415500000000005501495
:1004D00014140014001414055000000000154014FA
:1004E0005014141414145015400000000015541436
:1004F0000015501400140015540000000015541489
:1005000000155014001400140000000000055414DD
:1005100000140014541414055400000000141414A2
:10052000141554141414141414000000001554016C
:1005300040014001400140155400000000005400FB
:1005400014001400141414055000000000141414B6
:1005500050154015401450141400000000140014ED
:1005600000140014001400155400000000140515B8
:100570001515551445140514050000000014141534
:10058000141554155414541414000000000550148C
:100590001414141414141405500000000015501401
:1005A0001414141550140014000000000005501419
:1005B00014141414141450051400000000155014E1
:1005C0001414141550145014140000000005501495
:1005D00000055000140014055000000000155401DF
:1005E000400140014001400140000000001414148B
:1005F00014141414141414155400000000141414CA
:1006000014141414140550014000000000140514C3
:100610000514451555151514050000000014141493
:100620001405500550141414140000000014141480
:100630001405500140014001400000000015540025
:100640005001400500140015540000000001540141
:10065000400140014001400154000000001000141E
:10066000000500014000500014000000001540018A
:1006700040014001400140154000000000004001E1
:1006800050051414050000000000000000000000E8
:10069000000000000000005555000000000140056A
:1006A000501554155405500140000000000000058D
:1006B00050001405541414055400000000140014D4
:1006C000001550141414141550000000000000050B
:1006D0005014001400140005500000000000140025
:1006E00014055414141414055400000000000005EF
:1006F000501414155414000550000000000054015B
:100700004005540140014001400000000000000588
:10071000541414141405540014155000001400143B
:1007200000155014141414141400000000014000AB
:100730000005400140014005500000000000140089
:1007400000001400140014001405500000140014DC
:10075000001450154014501414000000000540010E
:10076000400140014001400550000000000000141D
:10077000141555155514451405000000000000150A
:100780005014141414141414140000000000000574
:100790005014141414141405500000000000001527
:1007A0005014141414155014001400000000000517
:1007B00054141414140554001400140000000015FF
:1007C0005014141400140014000000000000000570
:1007D000541400055000141550000000000140158D
:1007E000540140014001400054000000000000148A
:1007F0001414141414141405540000000000001400
:1008000014141414140550014000000000000014DA
:10081000051445155505540514000000000000148A
:10082000140550014005501414000000000000148D
:100830001414141414055400501540000000001541
:10084000540050014005001554000000000140050F
:10085000501554155401400550000001400140015D
:100860004001400140014001400140000015541585
:1008700040155014541414001400000040014005A9
:1008800040154005400140004000000100014001CA
:100890005001540150014001000000000000000020
:1008A0000000000000000000000000000000000048
:1008B0000000000000000000000000000000000038
:1008C0000000000000000000000000000000000028
:1008D0000000000000000000000000000000000018
:1008E0000000000000000000000000000000000008
:1008F00000000000000000000000000000000000F8
:1009000000000000000000000000000000000000E7
:1009100000000000000000000000000000000000D7
:1009200000000000000000000000000000000000C7
:1009300000000000000000000000000000000000B7
:1009400000000000000000000000000000000000A7
:100950000000000000000000000000000000000097
:100960000000000000000000000000000000000087
:100970000000000000000000000000000000000077
:100980000000000000000000000000000000000067
:100990000000000000000000000000000000000057
:1009A0000000000000000000000000000000000047
:1009B0000000000000000000000000000000000037
:1009C0000000000000000000000000000000000027
:1009D0000000000000000000000000000000000017
:1009E0000000000000000000000000000000000007
:1009F00000000000000000000000000000000000F7
:100A000000000000000000000000000000000000E6
:100A100000000000000000000000000000000000D6
:100A200000000000000000000000000000000000C6
:100A300000000000000000000000000000000000B6
:100A400000000000000000000000000000000000A6
:100A50000000000000000000000000000000000096
:100A60000000000000000000000000000000000086
:100A70000000000000000000000000000000000076
:100A80000000000000000100000010000000000055
:100A90000000000000000000000000000000000056
:100AA00000000004010000045000000001000000EC
:100AB0000000000000000000000000000000000036
:100AC0000004010040054001014001000000000059
:100AD0000000000000000000000000000000000412
:100AE00005004001000101000500000000000000B9
:100AF00000000000000000000000000000040110E1
:100B00004101000501000400000000000000000099
:100B10000000000000000000000000051510410169
:100B20000015051414000000000000000000000083
:100B30000000000000000000001159145515445534
:100B40000554140000000000000000000000000038
:100B500000000000000000055955959514555554A6
:100B6000500504000000000000000000000000002C
:100B70000000000004155955A554555955955014B9
:100B80000400000000000000000000000000000061
:100B9000000005259995A95555595595955450002E
:100BA0000000000000000000000000000000000045
:100BB00000559999AA555959569555545000000019
:100BC00000000000000000000000000000010155CE
:100BD000AA99AA555A59669555515400000000002B
:100BE00000000000000000000000000141556AAA5A
:100BF000AAA5AA69AA55655150000000000000008E
:100C00000000000000000000000041666ABFEA6AC0
:100C1000AA6AAA95A5950000000000000000000047
:100C20000000000000000010405AAAFFFEAAAAAA75
:100C30009AA69595510000000000000000000000F9
:100C4000000000000010455AABFFFFFFFAA9AAAA56
:100C5000A596550000000000000000000000000004
:100C6000000000155596AFFFFFFFFFAAAAAAAA959C
:100C70005400000000000000000000000000000020
:100C80000155A555AFFFFFFFFFFAAAAAAA655400B8
:100C90000000000000000000000000000000115AE9
:100CA000E555AFFFFFFFFFFFFAAAAA651540000058
:100CB000000000000000000000000000156B9555CA
:100CC000AFFFFFFFFFFFFFEA5AA55500000000003D
:100CD0000000000000000000000005AE556AAFFFF4
:100CE000FFFFFFFFFFFE9A9550000000000000008C
:100CF000000000000000000006BE55AAAFFFFFFF85
:100D0000FFFFFFFFA6A55400000000000000000048
:100D100000000000000046F959AEBFFFFFFFFFFFD3
:100D2000FFFFEAA5500000000000000000000000E6
:100D30000000000016E55ABEBFFFFFFFFFFFFFFFE8
:100D4000FAA5805000000000000000000000000034
:100D500000001BE55ABAFFFFFFFFFFFFFFFFFEA6E3
:100D600080400000000000000000000000000000C3
:100D70001BE556BAFFFFFFFFFFFFFFFFFFAA9140F1
:100D800000000000000000000000000000001BE563
:100D90005ABAFFFFFFFFFFFFFFFFFFEA5500000009
:100DA0000000000000000000000000001BE65AFAEE
:100DB000FFFFFFFFFFFFFFFFFFEA540000000000FE
:100DC000000000000000000000001BE69AFBFFFF8F
:100DD000FFFFFFFFFFFFFFF9515000000000000080
:100DE00000000000000000001BE99AFBFFFFFFFF6E
:100DF000FFFFFFFFFFF9554000000000000000006A
:100E00000000000000001AFA9ABBFFFFFFFFFFFF7F
:100E1000FFFFFFF965000000000000000000000077
:100E20000000000016FAA5BFFFFFFFFFFFFFFFFF56
:100E3000FFFE551000000000000000000000000050
:100E4000000006FEA5BFFFFFFFFFFFFFFFFFFFFE45
:100E500055400000000000000000000000000000FD
:100E600002BFA56FFFFFFFFFFFFFFFFFFFFE550063
:100E7000000000000000000000000000000000BFB3
:100E8000EA6FFFFFFFFFFFFFFFFFFFFFA54000002E
:100E9000000000000000000000000000002FFEAB7A
:100EA000FFEEAFFFFFFFFFFFFFFFE9400000000084
:100EB00000000000000000000000000BFFFFFF88A2
:100EC0000BFFFFFFFFFFFFFBF90000000000000029
:100ED00000000000000000000002FFFFFF800BFF89
:100EE000FFFFFFFFFFFBF800000000000000000014
:100EF0000000000000000000AAFABF800BFFFFFF07
:100F0000FFFFFFFAE8000000000000000000000002
:100F100000000000000002A0BFE00BFFFFFEABFFDF
:100F2000FFEAA00000000000000000000000000038
:100F3000000000000000BFE00BFFFAAA0BFFFFE07B
:100F400000000000000000000000000000000000A1
:100F5000000000002FE00BFFF8000BFFFFE0000097
:100F60000000000000000000000000000000000081
:100F700000000BE80BFFF8000AFFFFA000000000D4
:100F80000000000000000000000000000000000061
:100F90000BF82BFFE00002FFFF80000000000000C4
:100FA00000000000000000000000000000000BF83E
:100FB0002FFFE00002FFFF800000000000000000A3
:100FC0000000000000000000000000000BF82FFFF0
:100FD000F8000AFFFF800000000000000000000091
:100FE0000000000000000000000002F82FFFF800E1
:100FF0002BFFFFA000000000000000000000000028
:10100000000000000000000002A02FFFF8002FFFEA
:10101000FFE00000000000000000000000000000F1
:1010200000000000000000002FFFFA002BFFFFE08F
:1010300000000000000000000000000000000000B0
:101040000000000000002BFFFE0002FFFFF8000080
:101050000000000000000000000000000000000090
:10106000000000002FFFFE0002BFFFE000000000B4
:101070000000000000000000000000000000000070
:1010800000002FFFFA00002AAA80000000000000E4
:101090000000000000000000000000000000000050
:1010A0000AAAA800000000000000000000000000E4
:1010B0000000000000000000000000000000000030
:1010C0000000000000000000000000000000000020
:1010D0000000000000000000000000000000000010
:1010E0000000000000000000000000000000000000
:1010F00000000000000000000000000000000000F0
:1011000000000000000000000000000000000000DF
:1011100000000000000000000000000000000000CF
:1011200000000000000000000000000000000003BC
:1011300000000000000000000000000000000000AF
:10114000000000000000000000FF0300000300009A
:10115000000F0F00000000000000CC000FC00000D6
:1011600000000000000000C0C300000000003C0FB1
:101170000F00000000000000CC0030300000000034
:101180000000000000C0C33F0FC33F0FF00F0F3F30
:101190000FFF0FFF03C3FFC03033F0FFF03C0F0021
:1011A000000000FF0300C0C330CC300CF300CC3093
:1011B000CC30CC30CC3030000CC30CC330C000007D
:1011C00000C0C30FC30330CFF00CF30FCC30CC30D2
:1011D000CC30CC3030F0FCC30CFF0C00000000C061
:1011E000C330C30330CC000CF330CC30CC30CC3027
:1011F000CC3030330CC30CC00300000000C0C3303F
:10120000CC0330CFF00C3330CC30CC30CC30CC30C1
:1012100030330CC30CC330C0000000FF030FCFC33A
:1012200030CC300C330FCC30CC30C3C03C300FF05E
:10123000FCC30C3C0F000000000000000000000C8C
:10124000300000000000000000000000000000006E
:10125000000000000000000000000000000FC000BF
:10126000000000000000000000000000000000007E
:10127000000000000000000000000000000000006E
:10128000000000000000000000000000000000005E
:10129000000000000000000000000000000000004E
:1017D000000000000000000000FFFFFFFFFFFFC04F
:1017E0000FFFFFFC000000000FFF00000C000000D6
:1017F000003FFE00000000800000000000800800A4
:101800000003C0000000F000E0000800000000300D
:1018100002000000008000000000008008000000BE
:10182000A000000F00000A000A00000000300200C3
:101830000000008000000000008008000000080098
:10184000003000000080088000000020020000003E
:10185000008000000000008008000000020000C0BE
:10186000000000200820000000200200000000AA64
:10187000A800000AAA800AAAAA800080030002A881
:101880000008080800000020020000000000080016
:10189000000800000000002800200C002802800240
:1018A00008020000002002000000000008000008FC
:1018B0000000000000028028200080002000880036
:1018C0008000002002000000000008000008000066
:1018D00000000000800820020000080088002000AE
:1018E00000200200000000000800000800000000C6
:1018F00000002008200800000200880008000020E6
:1019000002000000000008000008000000000000C5
:1019100020088008000002002800020000200200C9
:101920000000000009111118000000000000280844
:1019300084600000008468440080002112000000E0
:101940000000084444480000000000000AA0912064
:10195000000000912911AAA0002446000000000008
:1019600009555558000FFFFFFFC0000095600000AB
:1019700000956955800AFFF55600000000000955E2
:101980005558000956095560000095600000009503
:10199000695580002555560000000000095555582E
:1019A0000009560255580000955800000255695527
:1019B00080000955560000000000095555580009DF
:1019C00056009556000097780000027769DD800088
:1019D000025DDE000000000009DDDDD80009DE0048
:1019E00025DD80002DDE00000BDD8B77800000B749
:1019F0007600000000000B777778000B76000B77FD
:101A000060002FFFA000AFFF8BFF8000002FFE00C3
:101A1000000000000BFFFFF8000BFE0002FFF800C3
:101A20000BFFFAAAFFFE0BFF8000000BFE00000078
:101A300000000BFFFFF8000BFE0000BFFE000BFFD5
:101A4000FFFFFFFE0BFF80000002FE000000000011
:101A50000BFFFFF8000BFE00002FFF8002FFFFFFCF
:101A6000FFF80BFF80000000BE00000000000BFF2D
:101A7000FFF8000BFE00000BFFE000BFFFFFFFE0E0
:101A80000BFF800000002E00000000000BFFFFF89D
:101A9000000BFE000002FFF8002BFFFFFE800BFF93
:101AA000800000000A00000000000BFFFFF8000BA0
:101AB000FE000000BFFE0002BFFFE8000BFF800039
:101AC00000000200000000000AAAAAA8000AAA005A
:101AD00000002AAA00002AAA80000AAA80000000AA
:101AE00000000000000000000000000000000000F6
:101AF00000000000000000000000000000000000E6
:101B000000000000000000000000000000000000D5
:101B100000000000000000000000000000000000C5
:101B200000000000000000000000000000000000B5
:101B300000000000000000000000000000000000A5
:101B40000000000000000000000000000000000095
:101B50000000000000000000000000000000000085
:101B6000000A82A000000A00000000003FC0000040
:101B7000F000000000000000000000000000000273
:101B800000800000020000000000C0C30000300020
:101B900000000000000000000000000000020080C3
:101BA0000000020000000000C00300003000000040
:101BB000000000000000000000000002008AA80AE7
:101BC00002A00A8282003F0FFF3F303C000000006D
:101BD00000000000000000000002008820208208B1
:101BE0002020880000C30C0C30C30000000000005F
:101BF00000000000000000020080802A82082020EF
:101C0000200000C3033030FF00000000000000008F
:101C10000000000000020082082002082020880046
:101C2000C0C3033030C0000000000000000000000E
:101C300000000000AA0AA80A82A00A820A00FF0384
:101C4000C0C0FC3F000000000000000000000000D9
:101C5000000000000000000000000000000000C0C4
:101C60000000000000000000000000000000000074
:101C700000000000000000000000000000C00000A4
:101C80000000000000000000000000000000000054
:101C9000000000000000000000000F000000000035
:101CA0000000000000000000000000000000000034
:101CB0000000000000000000000000000000000024
:101CC0000000000000000000000000000000000014
:101CD0000000000000000000000000000000000004
:101F100000000000000000000000000011241FBEAF
:101F2000CFEFD0E1DEBFCDBF14BE88E10FB6F8948D
:101F300080936000109260000FBE11E0A0E0B1E05D
:101F4000ECEFF6E402C005900D92A839B107D9F77D
:101F50001FE0A8E9B1E001C01D92A33CB107E1F781
:101F60000E948519882311F40E949B19F894E1E0DE
:101F7000FDE080E090E020E802C02193019632E08D
:101F80008C309307D4F381E09DE090930E0F809303
:101F90000D0F10920F0FE2E1FFE080E090E003C030
:101FA000108201963A9684309105D4F39093450FB0
:101FB0008093440F91E09093320F9093330F90935E
:101FC000310F1092810015BC8FEF87B984B988E971
:101FD0008AB95C9A8CE081B98BEF82B91092DC0CE3
:101FE00086E08093DD0C109285001092840083E0DF
:101FF000809389008DE88093880089E08093810038
:1020000082E080936F0082E484BD17BC95BD83E8B5
:102010008093B0001092B3009093B10081E185B934
:102020001092F10C1092E00C1092E10C1092EC0C5A
:102030001092EB0C1092F00C1092EF0C1092F40C2A
:102040000E946D1A80E00E94531980FF03C084E053
:102050000E9450190E943E1978940E943E190E94D5
:102060002E230C947C230C940000A6E8B1E0119779
:10207000F1F700000000C8E9D1E04427FFD034E4C4
:102080003A95F1F70000000014D037E23A95F1F7E5
:10209000000040FDC25E40FDDF4F4395403C71F7BC
:1020A000EDD0E1E0E093DE0CE2E0E09336001124B5
:1020B0000895BE0138EDBCE02EE10991A02FA29554
:1020C000A695A695A370A30F0C9008B800C00000B9
:1020D000A02FA295A370A30F0C90000008B80000D9
:1020E00000C0A02FA695A695A370A30F0C9008B8CA
:1020F00000C0A02FA370A30F0C9009912A9508B8D7
:10210000E9F6C895C895002400C008B8EB01089509
:102110004C11561164118C1028980E941A13E7E193
:10212000EA95F1F7289A0FD1E0E0F6E0F2D0E0FF6F
:1021300032D0E0FF2FC02F933F934F935F936F9365
:102140007F938F939F93AF93BF9378941124E091E3
:10215000E20CF091E30CE115F10509F009950E94FC
:102160003E190E94CE1A0E94BE190E9447121124E5
:10217000E091E40CF091E50CE115F10509F0099509
:10218000BF91AF919F918F917F916F915F914F918F
:102190003F912F910895EF93E091DD0CE93DE0F53B
:1021A000E937D0F12F923F924F925F926F927F92D8
:1021B0008F929F92AF92BF92CF92DF92EF92FF9257
:1021C0000F931F932F933F934F935F936F937F933F
:1021D0008F939F93AF93BF93CF93DF930E9435105C
:1021E000DF91CF91BF91AF919F918F917F916F912F
:1021F0005F914F913F912F911F910F91FF90EF9021
:10220000DF90CF90BF90AF909F908F907F906F9016
:102210005F904F903F902F90EF910895FF93EF9331
:10222000EFB7EF93E0918400EE50E13000F0E23040
:1022300000F0E33000F0E43000F0E53000F0E6308C
:1022400000F0E73000F0E83000F0E93000F005D0B1
:10225000EF91EFBFEF91FF9118950F921F92E0E180
:10226000F1E20090DC0C000C1124E00DF11D059052
:102270001490F00109951F900F90089528980E94DE
:102280001A13E5E1EA95F1F7E091DD0CEA95E093A8
:10229000DD0C289A00C0089528980E944113289ABE
:1022A0000000E1E0F6E035D047D0089528980E947C
:1022B0004113E0EB0000EA95E9F700000000289ADE
:1022C000F6E0E2E026D0089528980E944113289A6B
:1022D0000000E3E0FDEF1DD0E091DD0CE53091F46E
:1022E000E091DF0CE1300000F091F10C19F4F09175
:1022F000F10CF195E3E0E0938900EDE8EF0FE09356
:1023000088000895E3E0E0938900EDE8E093880019
:1023100008950090DD0C0A9410905F0011FC0F2EC0
:102320000092DD0C0090DC0C11FC0E2E0092DC0CF7
:10233000E0E011FCE1E00895E3E0E0938900EDE8DE
:10234000E09388000895E7E0E0938900EBE1E093F3
:102350008800089500000000000000000000000058
:10236000000000000000000000000000000000006D
:10237000000000000000000000000000000000005D
:10238000000000000000000000000000000000004D
:10239000000000000000000000000000000000003D
:1023A000000000000000000000000000000000002D
:1023B000000000000000000000000000000000001D
:1023C000000000000000000000000000000000000D
:1023D00000000000000000000000000000000000FD
:1023E00000000000000000000000000000000000ED
:1023F00000000000000000000000000000000000DD
:1024000099277727833008F00895E0E0F1E3660F1D
:10241000771FE60FF71FA591B491E2E1FFE02AE0F4
:10242000289FE00DF11DA183B2831124089590919E
:10243000310F9170880F892B8093310F0895992760
:102440007727E2E1FFE02AE0289FE00DF11D6E3FD3
:1024500031F46091310F6E7F6093310F0BC06F3F8D
:1024600031F46091310F6E6F6093310F03C077E2EA
:10247000760F75831124089599277727E2E1FFE00D
:102480002AE0289FE00DF11D6083112408950E9429
:102490005F1C00900F0F002019F4A1E0BDE002C006
:1024A000A7E0BEE021E0022600920F0F22E0209379
:1024B000100F2F923F924F925F926F927F928F9266
:1024C0009F92AF92BF92CF92DF92EF92FF920F93C3
:1024D0001F93CF93DF935091300F6091320F709123
:1024E000330F8091340F2090130F3090140F4090D1
:1024F000160F5090170F6090150F1091120F7090DB
:102500001D0F80901E0F90901F0FA090200FB09075
:10251000210F20911C0FC090270FD090280FE09022
:102520002A0FF0902B0F0091290F3091260F9FEF6B
:10253000620C431CF2014491410300240008C12DA8
:10254000D02D970CA81CF5014491420300240008EB
:10255000C10DD01D0C0DED1CF70144914303002467
:102560000008C10DD01D8A956AF44091310F842F67
:102570008695062E0694062600FA7695679576F9D6
:1025800040FF66F940E860FD4FE74503002400087E
:10259000C10DD01D0024C038D0050CF0CFE70A943F
:1025A000C038D0050CF4C0E8C058CD939A9509F016
:1025B000BFCF4091100F4A954093100F97E009F05C
:1025C000B7CF6092150F4092160F90921F0FA092F6
:1025D000200F0093290FE0922A0F6093320F70931F
:1025E000330F8093340FDF91CF911F910F91FF90A4
:1025F000EF90DF90CF90BF90AF909F908F907F90A3
:102600006F905F904F903F902F900895E0910D0F45
:10261000F0910E0F019100000093B3000FE0ED3038
:10262000F00701E01DE008F0F801E0930D0FF093D2
:102630000E0F08950C941C130C941E130F931F93EC
:102640002F93E0910D0FF0910E0F01910093B300C5
:102650000FE0ED30F00710F40000000010F0E1E0B2
:10266000FDE0E0930D0FF0930E0FC895C895C89547
:10267000C895C895C895000000002F911F910F9133
:1026800008950000E091DD0CE0FFD8CFE1E1EA958C
:10269000F1F70000000008950000000000000000B5
:1026A000000000000000000000000000000000002A
:1026B000000000000000000000000000000000001A
:1026C000000000000000000000000000000000000A
:1026D00000000000000000000000000000000000FA
:1026E00000000000000000000000000000000000EA
:1026F00000000000000000000000000000000000DA
:10270000000306090C101316191C1F2225282B2E56
:10271000313336393C3F414447494C4E515355586B
:102720005A5C5E60626466686A6B6D6F7071737428
:10273000757678797A7A7B7C7D7D7E7E7E7F7F7FE1
:102740007F7F7F7F7E7E7E7D7D7C7B7A7A797876C7
:1027500075747371706F6D6B6A68666462605E5CDD
:102760005A585553514E4C494744413F3C393633F2
:10277000312E2B2825221F1C191613100C090603B5
:1027800000FDFAF7F4F0EDEAE7E4E1DEDBD8D5D2BC
:10279000CFCDCAC7C4C1BFBCB9B7B4B2AFADABA887
:1027A000A6A4A2A09E9C9A9896959391908F8D8CAA
:1027B0008B8A8887868685848383828282818181D1
:1027C0008181818182828283838485868687888ACB
:1027D0008B8C8D8F9091939596989A9C9EA0A2A495
:1027E000A6A8ABADAFB2B4B7B9BCBFC1C4C7CACD60
:1027F000CFD2D5D8DBDEE1E4E7EAEDF0F4F7FAFD7D
:10280000808182838485868788898A8B8C8D8E8F50
:10281000909192939495969798999A9B9C9D9E9F40
:10282000A0A1A2A3A4A5A6A7A8A9AAABACADAEAF30
:10283000B0B1B2B3B4B5B6B7B8B9BABBBCBDBEBF20
:10284000C0C1C2C3C4C5C6C7C8C9CACBCCCDCECF10
:10285000D0D1D2D3D4D5D6D7D8D9DADBDCDDDEDF00
:10286000E0E1E2E3E4E5E6E7E8E9EAEBECEDEEEFF0
:10287000F0F1F2F3F4F5F6F7F8F9FAFBFCFDFEFFE0
:10288000000102030405060708090A0B0C0D0E0FD0
:10289000101112131415161718191A1B1C1D1E1FC0
:1028A000202122232425262728292A2B2C2D2E2FB0
:1028B000303132333435363738393A3B3C3D3E3FA0
:1028C000404142434445464748494A4B4C4D4E4F90
:1028D000505152535455565758595A5B5C5D5E5F80
:1028E000606162636465666768696A6B6C6D6E6F70
:1028F000707172737475767778797A7B7C7D7E7F60
:1029000000020406080A0C0E10121416181A1C1ED7
:1029100020222426282A2C2E30323436383A3C3EC7
:1029200040424446484A4C4E50525456585A5C5EB7
:1029300060626466686A6C6E70727476787A7C7EA7
:102940007F7D7B79777573716F6D6B696765636187
:102950005F5D5B59575553514F4D4B494745434177
:102960003F3D3B39373533312F2D2B292725232167
:102970001F1D1B19171513110F0D0B090705030157
:10298000FFFDFBF9F7F5F3F1EFEDEBE9E7E5E3E147
:10299000DFDDDBD9D7D5D3D1CFCDCBC9C7C5C3C137
:1029A000BFBDBBB9B7B5B3B1AFADABA9A7A5A3A127
:1029B0009F9D9B99979593918F8D8B898785838117
:1029C00080828486888A8C8E90929496989A9C9E17
:1029D000A0A2A4A6A8AAACAEB0B2B4B6B8BABCBE07
:1029E000C0C2C4C6C8CACCCED0D2D4D6D8DADCDEF7
:1029F000E0E2E4E6E8EAECEEF0F2F4F6F8FAFCFEE7
:102A00007F7F7F7F7F7F7F7F7F7F7F7F7F7F7F7FD6
:102A10007F7F7F7F7F7F7F7F7F7F7F7F7F7F7F7FC6
:102A20007F7F7F7F7F7F7F7F7F7F7F7F7F7F7F7FB6
:102A30007F7F7F7F7F7F7F7F7F7F7F7F7F7F7F7FA6
:102D00000309131E28313A40464C5054585B5E610B
:102D1000636567696B6C6E6F7071727374757677CB
:102D2000777879797A7A7B7B7C7C7C7D7D7D7E7EF1
:102D30007E7E7F7F7F7F7F7F7F7F7F7F7F7F7F7FA5
:102D40007F7F7F7F7F7F7F7F7F7F7F7F7F7E7E7E96
:102D50007E7D7D7D7C7C7C7B7B7A7A7979787777C8
:102D6000767574737271706F6E6C6B696765636191
:102D70005E5B5854504C46403A31281E13090300FC
:102D8000C6CCD5DBDFE3E5E7E9EAEBECEDEEEFEF10
:102D9000F0F0F0F1F1F1F1F2F2F2F2F2F2F2F2F31C
:102DA000F3F3F3F3F3F3F3F3F3F3F3F3F3F3F3F3F3
:102DB000F3F3F3F3F3F3F3F3F3F3F3F3F3F3F3F3E3
:102DC000F3F3F3F3F3F3F3F3F3F3F3F3F3F3F3F3D3
:102DD000F3F3F3F3F3F3F3F3F3F3F3F3F3F3F3F3C3
:102DE000F2F2F2F2F2F2F2F2F1F1F1F1F0F0F0EFD0
:102DF000EFEEEDECEBEAE9E7E5E3DFDBD5CCC6008F
:102E000000283D42302D2C2B2C2D2E2F30323335E7
:102E100037393B3D3F414345484A4C4E5053555747
:102E2000595B5D5F61636567696B6C6E707173742C
:102E3000757778797A7B7C7D7D7E7E7F7F7F7F7FD3
:102E40007F7F7F7F7F7F7E7E7D7D7C7B7A797877B9
:102E500075747371706E6C6B69676563615F5D5BE0
:102E600059575553504E4C4A484543413F3D3B39D5
:102E700037353332302F2E2D2C2B2C2D30423D2840
:102E800000E9E5FED4D7D7D7D6D4D2D0CECCCAC8A5
:102E9000C6C3C1BFBDBAB8B6B4B1AFADABA9A7A5E3
:102EA000A3A19F9E9C9A999795949391908F8D8CB6
:102EB0008B8A8988888786858584848483838383B5
:102EC0008383838383848484858586878888898AAD
:102ED0008B8C8D8F909193949597999A9C9E9FA19E
:102EE000A3A5A7A9ABADAFB1B4B6B8BABDBFC1C3B6
:102EF000C6C8CACCCED0D2D4D6D7D7D7D4FEE5E96F
:102F0000F9F8F9F5EBE1DDDEE0E2E4E5E6E5E4E23F
:102F1000DED9D2CAC1B7ACA299918A86838180805A
:102F20008182838586888A8C8D8F909293959697DF
:102F300098999A9B9B9C9D9D9D9E9E9E9F9F9F9FC7
:102F40009F9F9F9E9E9E9D9D9D9C9B9B9A999897BF
:102F500096959392908F8D8C8A88868583828180C6
:102F6000808183868A9199A2ACB7C1CAD2D9DEE2A8
:102F7000E4E5E6E5E4E2E0DEDDE1EBF5F9F8F900B1
:102F80000708070B151F2322201E1C1B1A1B1C1EC3
:102F900022272E363F49545E676F767A7E7F7F7F89
:102FA0007F7E7D7B7A7876747371706E6D6B6A69E3
:102FB00068676665656464636362626261616161DA
:102FC00061616162626263636364656566676869C3
:102FD0006A6B6D6E7071737476787A7B7D7E7F7F9D
:102FE0007F7F7E7A766F675E54493F362E27221E9A
:102FF0001C1B1A1B1C1E2022231F150B0708070071
:103000001F313D444E5354565A5F64696E7476794D
:103010007C7F7F7F7F7F7F7F7F7F7F7F7F7F7F7FC3
:103020007F7F7F7F7F7F7F7F7F7F7F7F7F7F7F7FB0
:103030007F7F7F7F7F7F7F7F7F7F7F7F7F7F7F7FA0
:103040007F7F7F7F7F7F7F7F7F7F7F7F7F7F7F7F90
:103050007F7F7F7F7F7F7F7F7F7F7F7F7F7F7F7F80
:103060007F7F7F7F7F7F7F7F7F7F7F7F7F7F7F7F70
:103070007F7F7F7F7F7F7F7F7F7F7F7C7871684CC2
:103080002C1C120C0A0B0A05FDF3E9DFD4CAC0B7E9
:10309000AEA69E97918B868582808080808080807E
:1030A0008080808080808080808080808080808020
:1030B0008080808080808080808080808080808010
:1030C0008080808080808080808080808080808000
:1030D00080808080808080808080808080808080F0
:1030E00080808080808080808080808080808080E0
:1030F000808080808087919DACC4CBD4DDF2FAFAC9
:1031000022002400260028002B002D003000330070
:10311000360039003D004000440048004C0051009A
:1031200056005B00600066006C007300790081004F
:10313000880090009900A200AC00B600C100CC004D
:10314000D800E500F3000101100121013201440122
:1031500057016C0181019801B001CA01E501020229
:103160002102410264028802AE02D7020303300347
:1031700061039403CB03050442048304C7041005D0
:103180005D05AF0505066106C20629079607090811
:10319000830805098E09200ABA0A5D0B0A0CC10CC6
:1031A000840D510E2B0F121007110A121D1340141B
:1031B0007415BA1614188319071BA31C571E242054
:1031C0000E22142439267F28E82A752D293006334B
:1031D0000F364539AD3C49401B442848734CFE50DE
:1031E000CF55EA5A51600C661D6C8B725A799280E9
:1031F00037885090E598FDA19FABD3B5A3C00000E0
:103200008837D8F46036C8F44370E82FFF27E3709E
:10321000EE0FE050FF4F7EE1869586959927679FD8
:10322000800D911D88569E4FDC016C91819190819B
:103230006823499F60296C93112408958837E0F42E
:103240006036D0F4E82FFF27E370EE0FE050FF4F19
:103250007EE1869586959927679F800D911D8856FA
:103260009E4FDC018C91619170818623713011F049
:10327000879F812D11240895882708950895E0E4FB
:10328000FBE0A8E9B1E060E06D933197E9F7112424
:1032900008958091DE0C089511241092DE0C08959B
:1032A0008093F10C0895882329F48091E90C909182
:1032B000EA0C08958091ED0C9091EE0C089588230E
:1032C00029F48091EB0C9091EC0C08958091EF0C17
:1032D0009091F00C089578E07A95F1F7000001974D
:1032E000D1F70895F999FECF92BD81BD60BDF894E4
:1032F000FA9AF99A78940895F999FECF92BD81BD12
:10330000F894F89A80B5789408951F9380E090E03F
:103310000E947C19182F81E090E00E947C1990E0B7
:10332000382F20E0210F311D2A55354509F491E051
:10333000892F1F910895CF93DF93C0E0D0E0FE0165
:10334000E059FF4FE491CE016E2F0E947219219631
:10335000C531D105A1F7C0E4D0E0CE016FEF0E94E6
:103360007219CE0101966FEF0E947219A09688E043
:10337000C030D80791F7DF91CF9108958091F40C78
:10338000882309F4A9C08091F50C882309F051C065
:103390008091F60C0E945319282F86FF0FC0809150
:1033A000F70C9091F80C02979093F80C8093F70C1F
:1033B00097FF04C01092F80C1092F70C27FF12C070
:1033C0008091F70C9091F80C02969093F80C8093F2
:1033D000F70C883E910534F087EE90E09093F80C5E
:1033E0008093F70C24FF0FC08091F90C9091FA0C98
:1033F00002979093FA0C8093F90C97FF04C01092F7
:10340000FA0C1092F90C25FF67C08091F90C90918D
:10341000FA0C02969093FA0C8093F90C883D910572
:103420000CF45AC087ED90E09093FA0C8093F90C5D
:1034300008958091F60C0E945F199C014091F70C51
:103440005091F80C8F77907027FF0EC0BA01681B5F
:10345000790B7093F80C6093F70C77FF14C01092FF
:10346000F80C1092F70C0FC0840F951F9093F80C76
:103470008093F70C883E910534F087EE90E09093AE
:10348000F80C8093F70C4091F90C5091FA0C832FB3
:10349000992737FF10C08F7790709A01281B390B3E
:1034A0003093FA0C2093F90C37FF16C01092FA0CE7
:1034B0001092F90C08958F779070840F951F909358
:1034C000FA0C8093F90C883D910534F087ED90E07B
:1034D0009093FA0C8093F90C0895FF920F931F9329
:1034E000CF93DF93129A8091F40C882329F081E026
:1034F00090E00E946B1902C0C895C895129800E030
:1035000010E0C0E0D0E0FF2416950795D695C7954A
:1035100013988091F40C882329F085E090E00E94B4
:103520006B1902C0C895C895009B1068019BD068B4
:10353000139A8091F40C882329F085E090E00E9492
:103540006B1902C0C895C895F39480E1F816E1F6AE
:103550001093EA0C0093E90CD093EE0CC093ED0CA1
:103560008091E90C9091EA0C0F9731F08091ED0C6D
:103570009091EE0C0F9761F428E088E190E00FB68F
:10358000F894A895809360000FBE20936000FFCF51
:10359000DF91CF911F910F91FF900895FF920F93AC
:1035A0001F93CF93DF930E946D1A8091E90C909145
:1035B000EA0C97FD06C08091ED0C9091EE0C97FF00
:1035C00027C081E090E00E946B1900E010E0C0E0AD
:1035D000D0E0FF24000F111FCC0FDD1F1398C895FA
:1035E000C895C895C895009B0160019BC160139A5E
:1035F00088E090E00E946B19F39480E1F81651F78F
:103600001093EC0C0093EB0CD093F00CC093EF0CE8
:10361000DF91CF911F910F91FF90089590E026E1E7
:1036200030E0829FF001839FF00D929FF00D1124F6
:10363000E55BF04F628708956093310F089590E045
:1036400026E130E0829FF001839FF00D929FF00D04
:103650001124E55BF04F13861182089590E026E176
:1036600030E0829FF001839FF00D929FF00D1124B6
:10367000E55BF04F81E0838B089590E026E130E038
:10368000829FF001839FF00D929FF00D1124E55B66
:10369000F04F6187089590E026E130E0829FF001CD
:1036A000839FF00D929FF00D1124E55BF04F648332
:1036B000089590E026E130E0829FF001839FF00DB5
:1036C000929FF00D1124E55BF04F65830895DC01B6
:1036D000ED91FC911197AF014F5F5F4F11965C9395
:1036E0004E93E4912E2F30E0E7FF13C02F77307018
:1036F0003695322F222737952795FA014F5F5F4F76
:10370000E4918E2F8F77280F311DE7FDF1CF4D9378
:103710005C93C90108950E941F120895EF92FF92D1
:103720000F931F93CF93DF93182F062FF42EE22EC3
:10373000C82FD0E086E190E0C89FF001C99FF00D4E
:10374000D89FF00D1124E55BF04F8385882321F08D
:103750008181882309F0ACC0EE2091F486E190E0ED
:10376000C89FF001C99FF00DD89FF00D1124E55BB3
:10377000F04F138A8285882309F09AC0108698C07A
:10378000133059F481E091E09093330F8093320F1E
:1037900081E08093310F0F2D08C0812F60E00E94DF
:1037A0001F12812F6F2D0E9400120F3799F486E1AE
:1037B00090E0C89FF001C99FF00DD89FF00D112433
:1037C000E55BF04F8091A80F878789EA9FE0958B92
:1037D000848B30C089E0089FC0011124E091A50FBF
:1037E000F091A60FE80FF91F3396459154914115BA
:1037F000510571F486E190E0C89FF001C99FF00D7A
:10380000D89FF00D1124E55BF04F158A148A12C081
:10381000FA01249186E190E0C89FF001C99FF00D64
:10382000D89FF00D1124E55BF04F27874F5F5F4F66
:10383000558B448B86E190E0C89FD001C99FB00DA5
:10384000D89FB00D1124A55BB04F50961C92509795
:103850001A961C921A971C960C931C9711961C9200
:1038600011972FEF19962C9319971896EC92189799
:103870008BE090E0C89FF001C99FF00DD89FF00D3C
:103880001124EE0FFF1FE35BF04FF08251961C9264
:10389000519781E01B968C931B9753961C925397DC
:1038A00052961C92529714961C92149716962C932B
:1038B000DF91CF911F910F91FF90EF900895CF92DC
:1038C000DF92FF920F931F93CF93DF93E4E5FFE026
:1038D0008181282F332727FD30958081280F311DC6
:1038E0002F3F310519F014F02FEF30E0C90137FFF9
:1038F00002C080E090E0808376964FE0EC3AF407D7
:1039000039F78091000D882309F028C144C1E09166
:10391000AE0FF091AF0F9F012F5F3F4F3093AF0F6E
:103920002093AE0F44914F3F69F5A9014F5F5F4F60
:103930005093AF0F4093AE0FF90184918F3219F479
:103940001092000D19C1863009F0FBC0FA013196C2
:10395000CF0101969093AF0F8093AE0FE491E335C2
:1039600029F49093B20F8093B10FEBC0E53409F0C6
:10397000E8C08091B10F9091B20F9093AF0F8093F8
:10398000AE0FDFC047FF02C04093A70F542F5F70F8
:10399000842F90E0807F9070803B910531F1803CD6
:1039A000910581F18039910509F043C0C901019663
:1039B000F901449101969093AF0F8093AE0F019758
:1039C000FC012491852F90E08C9FF0018D9FF00DDC
:1039D0009C9FF00D1124E55BF04F8081882309F452
:1039E000B0C0220F852F648553C0C9010196F9012B
:1039F000449101969093AF0F8093AE0F0197FC0115
:103A0000249153C02F5F3F4F3093AF0F2093AE0FE1
:103A100021503040F9012491852F90E08C9FF001D6
:103A20008D9FF00D9C9FF00D1124E55BF04F2487D6
:103A300088C08091A70F582F5F7090E0807F9070B2
:103A4000803B910541F1803C910509F46EC08039BD
:103A5000910509F076C02F5F3F4F3093AF0F209351
:103A6000AE0F21503040F9012491852F90E08C9FBA
:103A7000D0018D9FB00D9C9FB00D1124A55BB04F60
:103A80008C91882309F45DC0220F852F1C966C91C0
:103A90000E948E1B56C02F5F3F4F3093AF0F209375
:103AA000AE0F21503040F9012491473071F4852F39
:103AB00090E08C9FF0018D9FF00D9C9FF00D1124E4
:103AC000E55BF04F220F27833CC04B3071F4852F0C
:103AD00090E08C9FF0018D9FF00D9C9FF00D1124C4
:103AE000E55BF04F220F26832CC04C3571F4852FF7
:103AF00090E08C9FF0018D9FF00D9C9FF00D1124A4
:103B0000E55BF04F220F24831CC04436D1F4852F8F
:103B100090E08C9FF0018D9FF00D9C9FF00D112483
:103B2000E55BF04F220F25830CC0852F90E08C9F22
:103B3000F0018D9FF00D9C9FF00D1124E55BF04F7F
:103B400044878EEA9FE00E94671B9093AD0F80939D
:103B5000AC0F1092A40F1092A30F02C0C6E1D0E0E8
:103B60006091A30F7091A40F8091AC0F9091AD0F55
:103B70006817790709F4CBCE6F5F7F4F7093A40F5E
:103B80006093A30F8091A90F9091AA0F0196909333
:103B9000AA0F8093A90F02E11FE0CCE4DFE0FF242D
:103BA000BFEFCB2ED12C8A89882309F05EC08B8988
:103BB0009C89892B09F456C09F858E85981708F03B
:103BC0004CC050C08B852B893C898F37E9F4D901D3
:103BD0008D91BC8BAB8B8F3F01F1F9016181119607
:103BE000BC8BAB8BE82FF0E0EE0FFF1FEB57FF4FC6
:103BF0000190F081E02D8F2D0995EB89FC89819151
:103C00008E87FC8BEB8B28C0A9014F5F5F4F5C8BCD
:103C10004B8BF90184918F3F21F418821C8A1B8AF7
:103C200021C04F5F5F4F5C8B4B8B41505040FA017E
:103C3000649190E0880F991F8B579F4FFC0125914D
:103C400034918F2DF9010995EB89FC893196FC8B14
:103C5000EB8B3197E491EE871F869F858E859817B1
:103C600009F4B0CF8F858F5F8F878A85882319F4F9
:103C700020E030E06BC088898F3F11F08F5F888B28
:103C80009F81992309F45CC02885222309F458C038
:103C90008E81882309F454C04091AB0F442309F46A
:103CA0004FC0899FC001112480509F4F892F9927B1
:103CB00030E0B901869F9001879F300D969F300DAF
:103CC000112420503F4F232F33278D8190E0FC019A
:103CD0002E9FC0012F9F900D3E9F900D112480506C
:103CE0009F4F892F9927242F30E0AC01429FC001BC
:103CF000439F900D529F900D112480509F4F292F6C
:103D000033278B818823F1F0EA81F0E0E050F94D10
:103D1000E491E058E89FC001112480509F4F892F03
:103D20009927B601681B790B629FC001639F900DB4
:103D3000729F900D112480509F4F292F332702C06E
:103D400020E030E08A819C81890F8A83F8012083FA
:103D5000F394065F1F4F6696F4E0FF1609F023CF39
:103D6000DF91CF911F910F91FF90DF90CF90089539
:103D7000FF920F931F93082FF62E0E94001210E05F
:103D80008BE090E0089FF001099FF00D189FF00D67
:103D90001124EE0FFF1FE35BF04FF0821F910F9194
:103DA000FF900895962F482F50E02BE030E0429F7F
:103DB000F001439FF00D529FF00D1124EE0FFF1FF5
:103DC000E35BF04F6081691B60830E9400120895DD
:103DD000482F50E02BE030E0429FF001439FF00D70
:103DE000529FF00D1124EE0FFF1FE35BF04F908107
:103DF000690F60830E94001208950F931F93CF9361
:103E0000DF938C01C0E0D0E007C00E9449198823ED
:103E1000E1F30E944C192196C017D107B4F3DF914A
:103E2000CF911F910F910895282F87FD2D5F259524
:103E30002595552747FD509584E0440F551F8A95D9
:103E4000E1F745565F4F8EE16802C0011124332728
:103E500027FD3095DC01A20FB31FA856BE4F280FD7
:103E6000391F28573D4FFA0184918C934F5F5F4F64
:103E7000FA01849111968C9311974F5F5F4F5E9674
:103E8000A217B30781F7089580E090E0FC01E556A2
:103E9000F74FE491DC01A856BE4FEC9301962BE05E
:103EA0008034920799F7089580E090E0FC01E55294
:103EB000FC4EE491DC01A856BE4FEC9301962BE03A
:103EC0008034920799F70895282FA0E0772767FD9F
:103ED000709527FD8D5F85958595992787FD909530
:103EE000FB0145E0EE0FFF1F4A95E1F7660F771FD4
:103EF000E61BF70BE80FF91FE856FE4F408150E034
:103F0000822F64E00E946F23990F20EC30E002C002
:103F1000359527959A95E2F742235323452B09F4CB
:103F2000A1E08A2F0895AF92BF92CF92DF92EF92D5
:103F3000FF920F931F93DF93CF9300D000D0CDB7A4
:103F4000DEB7F82EE62ED42EC22E89836A834B83E9
:103F50002C8300E010E05E010894A11CB11C57C046
:103F6000F501E60FF71F2081FB01E852F34F822F86
:103F700086958695869590E087709070089FA00141
:103F8000099F500D189F500D1124B3E0559547958A
:103F9000BA95E1F7440F440F440F822F90E08770E9
:103FA0009070DC010A9FC0010B9F900D1A9F900D2D
:103FB0001124A3E095958795AA95E1F7482B2295C2
:103FC0002695277030E026703070029FC001039F55
:103FD000900D129F900D112453E0959587955A9559
:103FE000E1F7867090708295880F807E482B408321
:103FF0006F5F7F4F6430710509F0B2CF83E090E0CE
:104000000E94FD1E0F5F1F4F0930110519F060E07F
:1040100070E0A6CFF092D80CE092D90CD092DA0CD6
:10402000C092DB0C0F900F900F900F90CF91DF910B
:104030001F910F91FF90EF90DF90CF90BF90AF90C6
:104040000895EF92FF920F931F93DF93CF9300D0C9
:1040500000D0CDB7DEB78091D80C89838091D90C80
:104060008A838091DA0C8B838091DB0C8C8382E3D2
:1040700090E00E94FD1E08E010E07E010894E11C23
:10408000F11C58C0F701E60FF71F2081FB01E85231
:10409000F34F822F86958695869590E08770907075
:1040A000089FA001099F500D189F500D1124A3E0F7
:1040B00055954795AA95E1F7440F440F440F822F79
:1040C00090E087709070DC010A9FC0010B9F900DFB
:1040D0001A9F900D112433E0959587953A95E1F755
:1040E000482B22952695277030E026703070029F6D
:1040F000C001039F900D129F900D112423E0959510
:1041000087952A95E1F7867090708295880F807E5A
:10411000482B40836F5F7F4F6430710509F0B2CF49
:1041200083E090E00E94FD1E01501040BFEF0F3F62
:104130001B0719F060E070E0A5CF0E943F1985E0F1
:1041400090E00E94FD1E0F900F900F900F90CF9166
:10415000DF911F910F91FF90EF900895CF92DF9222
:10416000EF92FF920F931F93C62ED42EE22EF02EC5
:10417000082F0FC0802F612F0E94641F882329F40D
:10418000802F612F4F2D0E9400191F5F1E1594F381
:104190000F5F0D1514F41C2DF9CF1F910F91FF9097
:1041A000EF90DF90CF90089580E00E9453199C011A
:1041B0009093B40F8093B30F4091BB0F5091BC0FFD
:1041C000CA0180959095822393239093C00F80938A
:1041D000BF0FC90180959095842395239093B80FC4
:1041E0008093B70F3093BC0F2093BB0F81E00E94E8
:1041F00053199C019093B60F8093B50F4091BD0F5A
:104200005091BE0FCA01809590958223932390937D
:10421000C20F8093C10FC901809590958423952387
:104220009093BA0F8093B90F3093BE0F2093BD0FB8
:104230000895CF92DF92EF92FF920F931F93CF9347
:10424000DF93C62EF42ED52E2F2D352F8901C0E0F9
:10425000D0E0E82EEF180CC08E2D800F880F880F4D
:10426000880F6C2DF80141918F010E94141F219637
:10427000AF2DBD2DFD0101900020E9F73197EA1B1C
:10428000FB0BCE17DF0740F3DF91CF911F910F910A
:10429000FF90EF90DF90CF90089580913C0F909128
:1042A0003D0F039731F480E06CE240E151E00E9461
:1042B000192180913C0F90913D0F019731F480E0DE
:1042C0006CE24DE151E00E94192180913C0F9091E8
:1042D0003D0F029731F480E06CE249E251E00E9428
:1042E000192180E06FEF40E020E00E94931F8CE3F3
:1042F00090E00E94FD1E10923B0F10923A0F0E9418
:10430000212008952F923F924F925F926F927F9259
:104310008F929F92AF92BF92CF92DF92EF92FF92D5
:104320000F931F93DF93CF93CDB7DEB728970FB6C8
:10433000F894DEBF0FBECDBF1092D80C80EC8093F6
:10434000D90C8EE08093DA0C8FEF8093DB0C0E9407
:104350003F1910E0812F60E043E00E940019812F97
:104360006FE543E00E9400191F5F183799F710E0CE
:1043700080E0612F43E00E94001987E7612F43E04E
:104380000E9400191F5F103699F784E1898383E644
:104390008A8381E08B838FEF8C838FE28D838E8382
:1043A0001F8218863324442422242A9481E090E03A
:1043B0000E94FD1E0E94D4208FEBA82E8FE0B82E05
:1043C0003E010894611C711C05E0802E912C8C0E1E
:1043D0009D1E13E0C12ED12CCC0EDD1EB7E0EB2EBE
:1043E000F12CEC0EFD1E55245394F501908194FFA1
:1043F00008C0F7018081181624F0F6011082F70139
:10440000208295FF09C0F701808187FD05C0F60174
:10441000108281E0F701808397FF08C0F601808158
:1044200087FD04C081E08083F701108296FF07C0FA
:10443000F601808118161CF02082F7011082F3012A
:104440001081F4010081812F602F452D0E940019F9
:10445000F60181916F01810FF30181933F01F70113
:1044600081917F01800FF40181934F0182E090E000
:10447000A80EB91E539493E0591609F0B6CFF980EF
:10448000ED808F2D6E2D0E94641F882311F433243C
:1044900033940A811E81802F612F0E94641F88231C
:1044A00011F444244394332041F0442019F083E074
:1044B00090E008C082E090E005C0442009F440C0CC
:1044C00081E090E090933D0F80933C0F0E9421206B
:1044D0000E943F191092D80C8FEF8093D90C80E086
:1044E0006CE245E351E00E94192180E06FEF40E06B
:1044F00020E00E94931F8CE390E00E94FD1E0E942A
:10450000212082E090E090933B0F80933A0F289611
:104510000FB6F894DEBF0FBECDBFCF91DF911F91D4
:104520000F91FF90EF90DF90CF90BF90AF909F9052
:104530008F907F906F905F904F903F902F90089555
:104540008F2D6E2D43E00E940019802F612F43E0D4
:104550000E9400192BCFFF920F931F9380E06FE012
:1045600042E451E00E94192180E063E24DE451E011
:104570000E94192180E06DE24AE551E00E94192174
:1045800080E067E546E651E00E94192180E067E59A
:1045900046E751E00E94192180E06FEF40EC2EE0E9
:1045A0000E94931FFF2410E01FC081E090E00E9452
:1045B000FD1E0E94D4208091BF0F83FF09C0FF24FD
:1045C000F39480E067E540E12FE502E00E94AE2031
:1045D0008091C10F83FF08C011E087E667E547E7D8
:1045E0002FE503E00E94AE20FF20F9F21123E9F24B
:1045F0000E94212081E090E090933B0F80933A0F3E
:1046000080E06CE249E751E00E94192180E06FEF01
:1046100040E020E00E94931F8CE390E00E94FD1E8A
:104620000E943F1980E06CE244E851E00E941921A9
:104630008CE390E00E94FD1E0E943F1980E06CE236
:104640004EE851E00E9419218CE390E00E94FD1E8B
:104650000E943F191F910F91FF9008950E943F19EA
:1046600084E00E9450190E94441F80E06FE24DE0F8
:104670002FEF0E94931F88E790E00E94FD1E0E948A
:1046800021200E94541F80E060EC4EE02FEF0E943A
:10469000931F88E790E00E94FD1E0E9421208091D8
:1046A0003A0F90913B0F009719F40E94AB22F7CF7D
:1046B0008130910519F40E948221F1CF029779F798
:1046C0000E944D21ECCF991B79E004C0991F9617E9
:1046D00008F0961B881F7A95C9F78095089587FB87
:1046E000082E062687FD819567FD6195ECDF0EF4A7
:0C46F000919507FC81950895F894FFCF88
:1046FC003F40CF10F304FC01C00430100C40030108
:10470C002020205469652047616D65210020202000
:10471C0020503120576F6E21002020202050322055
:10472C00576F6E210020202047616D65204F766504
:10473C007200202020202054726F6E210020202037
:10474C005265616479205570210020202020287347
:10475C007461727429002020202020202020202029
:10476C002020205032005031002020202052656142
:10477C0064793F0020202020205365743F002020C6
:08478C0020202020476F2100CE
:00000001FF
