:100000000C94930F0C942D100C942D100C942D1017
:100010000C942D100C942D100C942D100C942D106C
:100020000C942D100C942D100C942D100C942D105C
:100030000C942D100C94DF100C942D100C942D109A
:100040000C942D100C942D100C942D100C942D103C
:100050000C942D100C942D100C942D100C942D102C
:100060000C942D100C942D100C942D100C942D101C
:100070005A5501200101003808000000000000006E
:100080000000000000000000000000000000000070
:1000900077198519F419331D1D1D88199719A6198B
:1000A000031DB419C2190000051415551555055442
:1000B0000150004000000140014001400155015540
:1000C0000140014001400005000500050005000554
:1000D0000005000500050140014001405540554024
:1000E0000000000000000140014001405540554023
:1000F0000140014001400000000000005540554013
:100100000140014001400005001500540150054028
:1001100015005400500050005400150005400150D7
:10012000005400150005000100050015005501559B
:1001300005551555555500000000000000000055FC
:1001400000550055005540005000540055005540E2
:100150005550555455550055005500550055000053
:10016000000000000000550055005500550000003B
:10017000000000000000555555550000000000002B
:10018000000000000000000000000000000000006F
:1001900000005555555500000000000000005500B6
:1001A000550055005500000001500150151515155A
:1001B0000040015000000000000000000155015502
:1001C0000140014001400000000000005555555518
:1001D0000000000000000140014001405555555508
:1001E0000140014001400000000005501554155425
:1001F0001554055000000000000000000000555597
:100200005555555555555000500050005000500060
:10021000500050005000000000000000555555559A
:1002200001400140014001400140014055555555F4
:100230000000000000005500550055005500550015
:100240005500550055000140014001400155015540
:100250000000000000001540140015401400155463
:1002600001400154000000000140055015540140B8
:1002700001400140000000000140014001401554D0
:100280000550014000000000014005001554050024
:1002900001400000000000000140005015540050D3
:1002A000014000000000000000000000000000000D
:1002B000000000000000000001400140014001403A
:1002C0000000014000000000141414141414000075
:1002D00000000000000000001414555514141414FC
:1002E0005555141400000140055414000550001425
:1002F0001550014000000000141414500140050086
:100300001414101400000150051401500540145538
:1003100014140545000000000140014001400000A8
:1003200000000000000000000054015001400140A6
:10033000015000540000000015000540014001403C
:1003400005401500000000001414055055550550D7
:100350001414000000000000014001401554014049
:10036000014000000000000000000000000000004C
:10037000014001400500000000000000155400008D
:10038000000000000000000000000000000000006D
:100390000140014000000000001400500140050031
:1003A000140010000000000005501414145415141B
:1003B00014140550000000000140054001400140B8
:1003C0000140155400000000055014140050014075
:1003D0000500155400000000155400500140005065
:1003E0001414055000000000005001500550145036
:1003F000155400500000000015541400155000144E
:100400001414055000000000055014001550141479
:100410001414055000000000155400140050014051
:1004200005000500000000000550141405501414C8
:100430001414055000000000055014140554001455
:100440000050054000000000000001400140000095
:100450000140014000000000000001400140000098
:10046000014001400500001400500140050001401A
:1004700000500014000000000000155400000000AF
:100480001554000000001400050001400050014018
:100490000500140000000000055014140050014035
:1004A00000000140000000000550141414541454BE
:1004B00014000554000000000140055014141414E9
:1004C0001554141400000000155014141550141481
:1004D00014141550000000000550141414001400EA
:1004E0001414055000000000154014501414141486
:1004F000145015400000000015541400155014004D
:100500001400155400000000155414001550140078
:1005100014001400000000000554140014001454CA
:100520001414055400000000141414141554141469
:10053000141414140000000015540140014001403F
:100540000140155400000000005400140014001471
:1005500014140550000000001414145015401540E8
:1005600014501414000000001400140014001400AF
:1005700014001554000000001405151515551445F8
:100580001405140500000000141415141554155416
:1005900014541414000000000550141414141414FE
:1005A00014140550000000001550141414141550B4
:1005B0001400140000000000055014141414141446
:1005C0001450051400000000155014141414155094
:1005D00014501414000000000550140005500014BD
:1005E0000014055000000000155401400140014076
:1005F00001400140000000001414141414141414D9
:1006000014141554000000001414141414141414B9
:10061000055001400000000014051405144515554F
:10062000151514050000000014141414055005508D
:100630001414141400000000141414140550014084
:100640000140014000000000155400500140050029
:100650001400155400000000015401400140014005
:10066000014001540000000010001400050001408A
:1006700000500014000000001540014001400140FE
:100680000140154000000000004001500514140511
:10069000000000000000000000000000000000005A
:1006A0000000555500000000014005501554155438
:1006B00005500140000000000000055000140554E2
:1006C00014140554000000001400140015501414F4
:1006D0001414155000000000000005501400140010
:1006E00014000550000000000014001405541414F8
:1006F0001414055400000000000005501414155493
:100700001400055000000000005401400554014051
:1007100001400140000000000000055414141414AE
:100720000554001415500000140014001550141442
:1007300014141414000000000140000005400140A2
:1007400001400550000000000014000000140014D7
:10075000001400140550000014001400145015403B
:1007600014501414000000000540014001400140F5
:1007700001400550000000000000141415551555E7
:100780001445140500000000000015501414141442
:100790001414141400000000000005501414141464
:1007A0001414055000000000000015501414141417
:1007B0001550140014000000000005541414141403
:1007C0000554001400140000000015501414140007
:1007D000140014000000000000000554140005502F
:1007E0000014155000000000014015540140014064
:1007F00001400054000000000000141414141414EC
:1008000014140554000000000000141414141414EF
:100810000550014000000000000014051445155566
:100820000554051400000000000014140550014098
:1008300005501414000000000000141414141414C3
:1008400005540050154000000000155400500140B0
:1008500005001554000000000140055015541554C2
:1008600001400550000001400140014001400140AD
:10087000014001400140000015541540155014542A
:1008800014140014000000400140054015400540CC
:10089000014000400000010001400150015401509E
:1008A0000140010000000000000000000000000006
:1008B0000000000000000000000000000000000038
:1008C0000000000000000000000000000000000028
:1008D0000000000000000000000000000000000018
:1008E0000000000000000000000000000000000008
:1008F00000000000000000000000000000000000F8
:1009000000000000000000000000000000000000E7
:1009100000000000000000000000000000000000D7
:1009200000000000000000000000000000000000C7
:1009300000000000000000000000000000000000B7
:1009400000000000000000000000000000000000A7
:100950000000000000000000000000000000000097
:100960000000000000000000000000000000000087
:100970000000000000000000000000000000000077
:100980000000000000000000000000000000000067
:100990000000000000000000000000000000000057
:1009A0000000000000000000000000000000000047
:1009B0000000000000000000000000000000000037
:1009C0000000000000000000000000000000000027
:1009D0000000000000000000000000000000000017
:1009E0000000000000000000000000000000000007
:1009F00000000000000000000000000000000000F7
:100A000000000000000000000000000000000000E6
:100A100000000000000000000000000000000000D6
:100A200000000000000000000000000000000000C6
:100A300000000000000000000000000000000000B6
:100A400000000000000000000000000000000000A6
:100A50000000000000000000000000000000000096
:100A60000000000000000000000000000000000086
:100A70000000000000000000000000000000000076
:100A80000000000000000000000000000000000066
:100A90000001000000100000000000000000000045
:100AA0000000000000000000000000000000040141
:100AB00000000450000000010000000000000000E1
:100AC00000000000000000000000000004010040E1
:100AD000054001014001000000000000000000008E
:100AE00000000000000000000000040500400100BC
:100AF00001010005000000000000000000000000EF
:100B00000000000000000000040110410100050188
:100B100000040000000000000000000000000000D1
:100B20000000000000000515104101001505141417
:100B300000000000000000000000000000000000B5
:100B400000000000115914551544550554140000B7
:100B50000000000000000000000000000000000095
:100B6000000005595595951455555450050400003D
:100B70000000000000000000000000000000000471
:100B8000155955A5545559559550140400000000A9
:100B90000000000000000000000000000005259992
:100BA00095A95555595595955450000000000000E1
:100BB000000000000000000000000000559999AA04
:100BC000555959569555545000000000000000003A
:100BD0000000000000000000010155AA99AA555A22
:100BE00059669555515400000000000000000000B7
:100BF0000000000000000141556AAAAAA5AA69AA3E
:100C00005565515000000000000000000000000089
:100C1000000000000041666ABFEA6AAA6AAA95A5B8
:100C2000950000000000000000000000000000002F
:100C3000000010405AAAFFFEAAAAAA9AA6959551AA
:100C400000000000000000000000000000000000A4
:100C500010455AABFFFFFFFAA9AAAAA596550000B6
:100C6000000000000000000000000000000015551A
:100C700096AFFFFFFFFFAAAAAAAA955400000000A2
:100C800000000000000000000000000155A555AF65
:100C9000FFFFFFFFFAAAAAAA6554000000000000A7
:100CA000000000000000000000115AE555AFFFFFF2
:100CB000FFFFFFFAAAAA651540000000000000002F
:100CC00000000000000000156B9555AFFFFFFFFF0F
:100CD000FFFFEA5AA55500000000000000000000D8
:100CE000000000000005AE556AAFFFFFFFFFFFFFE9
:100CF000FE9A955000000000000000000000000077
:100D000000000006BE55AAAFFFFFFFFFFFFFFFA6D2
:100D1000A5540000000000000000000000000000DA
:100D20000046F959AEBFFFFFFFFFFFFFFFEAA550E6
:100D3000000000000000000000000000000000169D
:100D4000E55ABEBFFFFFFFFFFFFFFFFAA58050007F
:100D5000000000000000000000000000001BE55A39
:100D6000BAFFFFFFFFFFFFFFFFFEA680400000006D
:100D700000000000000000000000001BE556BAFF64
:100D8000FFFFFFFFFFFFFFFFAA91400000000000F0
:100D90000000000000000000001BE55ABAFFFFFF42
:100DA000FFFFFFFFFFFFEA5500000000000000000A
:100DB000000000000000001BE65AFAFFFFFFFFFFE3
:100DC000FFFFFFFFEA5400000000000000000000E9
:100DD00000000000001BE69AFBFFFFFFFFFFFFFF84
:100DE000FFFFF9515000000000000000000000006B
:100DF0000000001BE99AFBFFFFFFFFFFFFFFFFFF63
:100E0000F955400000000000000000000000000054
:100E1000001AFA9ABBFFFFFFFFFFFFFFFFFFF96514
:100E200000000000000000000000000000000016AC
:100E3000FAA5BFFFFFFFFFFFFFFFFFFFFE551000FA
:100E40000000000000000000000000000006FEA5F9
:100E5000BFFFFFFFFFFFFFFFFFFFFE554000000049
:100E6000000000000000000000000002BFA56FFFAE
:100E7000FFFFFFFFFFFFFFFFFE5500000000000027
:100E800000000000000000000000BFEA6FFFFFFF4D
:100E9000FFFFFFFFFFFFFFA5400000000000000074
:100EA00000000000000000002FFEABFFEEAFFFFFD0
:100EB000FFFFFFFFFFE9400000000000000000000E
:100EC0000000000000000BFFFFFF880BFFFFFFFF8B
:100ED000FFFFFBF900000000000000000000000020
:100EE0000000000002FFFFFF800BFFFFFFFFFFFF7E
:100EF000FBF80000000000000000000000000000FF
:100F0000000000AAFABF800BFFFFFFFFFFFFFAE817
:100F100000000000000000000000000000000000D1
:100F20000002A0BFE00BFFFFFEABFFFFEAA0000046
:100F300000000000000000000000000000000000B1
:100F400000BFE00BFFFAAA0BFFFFE000000000006B
:100F50000000000000000000000000000000002F62
:100F6000E00BFFF8000BFFFFE000000000000000B6
:100F7000000000000000000000000000000BE80B73
:100F8000FFF8000AFFFFA0000000000000000000C2
:100F900000000000000000000000000BF82BFFE044
:100FA0000002FFFF800000000000000000000000C1
:100FB0000000000000000000000BF82FFFE000021E
:100FC000FFFF8000000000000000000000000000A3
:100FD000000000000000000BF82FFFF8000AFFFFE0
:100FE0008000000000000000000000000000000081
:100FF000000000000002F82FFFF8002BFFFFA00008
:1010000000000000000000000000000000000000E0
:1010100000000002A02FFFF8002FFFFFE0000000FB
:1010200000000000000000000000000000000000C0
:101030000000002FFFFA002BFFFFE000000000007F
:1010400000000000000000000000000000000000A0
:10105000002BFFFE0002FFFFF80000000000000070
:101060000000000000000000000000000000002F51
:10107000FFFE0002BFFFE0000000000000000000D3
:10108000000000000000000000000000002FFFFA38
:1010900000002AAA800000000000000000000000FC
:1010A00000000000000000000000000AAAA80000E4
:1010B0000000000000000000000000000000000030
:1010C0000000000000000000000000000000000020
:1010D0000000000000000000000000000000000010
:1010E0000000000000000000000000000000000000
:1010F00000000000000000000000000000000000F0
:1011000000000000000000000000000000000000DF
:1011100000000000000000000000000000000000CF
:1011200000000000000000000000000000000000BF
:1011300000000000000000000000030000000000AC
:10114000000000000000000000000000000000009F
:1011500000000000FF030000030000000F0F00006C
:101160000000000000CC000FC000000000000000E4
:101170000000C0C300000000003C0F0F0000000092
:10118000000000CC00303000000000000000000033
:10119000C0C33F0FC33F0FF00F0F3F0FFF0FFF0301
:1011A000C3FFC03033F0FFF03C0F00000000FF032E
:1011B00000C0C330CC300CF300CC30CC30CC30CCC1
:1011C0003030000CC30CC330C0000000C0C30FC3DC
:1011D0000330CFF00CF30FCC30CC30CC30CC3030EF
:1011E000F0FCC30CFF0C00000000C0C330C3033090
:1011F000CC000CF330CC30CC30CC30CC3030330C95
:10120000C30CC00300000000C0C330CC0330CFF0DB
:101210000C3330CC30CC30CC30CC3030330CC30C31
:10122000C330C0000000FF030FCFC330CC300C33FD
:101230000FCC30CC30C3C03C300FF0FCC30C3C0FA3
:10124000000000000000000000000C300000000062
:10125000000000000000000000000000000000008E
:1012600000000000000000000FC0000000000000AF
:10127000000000000000000000000000000000006E
:10128000000000000000000000000000000000005E
:10129000000000000000000000000000000000004E
:1012A000000000000000000000000000000000003E
:10153000000055555555555540055555540000006A
:1015400000055500000400000000155600000000D2
:1015500080000000000080080000014000000050F2
:101560000060000800000000100200000000800081
:10157000000000008008000000A000000500000A34
:10158000000A0000000010020000000080000000BF
:101590000000800800000008000010000000800823
:1015A0008000000020020000000080000000000019
:1015B0008008000000020000400000002008200019
:1015C0000000200200000000AAA800000AAA800A69
:1015D000AAAA800080010002A800080808000000F4
:1015E00020020000000000080000080000000000C9
:1015F00028002004002802800208020000002002C7
:101600000000000000080000080000000000028048
:1016100028200080002000880080000020020000B8
:101620000000000800000800000000000080082002
:1016300002000008008800200000200200000000D6
:10164000000800000800000000000020082008003A
:1016500000020088000800002002000000000008CE
:1016600000000800000000000020088008000002C0
:10167000002800020000200200000000000B3333AD
:101680003800000000000028088CE00000008CE812
:10169000CC0080002332000000000008CCCCC80041
:1016A00000000000000AA0B320000000B32B33AA02
:1016B000A0002CCE00000000000BFFFFF800055535
:1016C0005555400000BFE0000000BFEBFF800A5509
:1016D0005FFE00000000000BFFFFF8000BFE0BFF99
:1016E000E00000BFE0000000BFEBFF80002FFFFE26
:1016F00000000000000BFFFFF8000BFE02FFF800E7
:1017000000BFF8000002FFEBFF80000BFFFE0000AF
:101710000000000BFFFFF8000BFE00BFFE0000BD45
:10172000D8000002DDEB77800002F77600000000B1
:10173000000B777778000B76002F778000277600F4
:1017400000097789DD8000009DDE000000000009AF
:10175000DDDDD80009DE0009DDE0002555A000A58B
:101760005589558000002556000000000009555598
:1017700058000956000255580009555AAA555609ED
:10178000558000000956000000000009555558001A
:10179000095600009556000955555555560955806E
:1017A0000000025600000000000955555800095677
:1017B00000002555800255555555580955800000A3
:1017C0000096000000000009555558000956000019
:1017D0000955600095555555600955800000002653
:1017E0000000000000095555580009560000025538
:1017F000580029555556800955800000000A000000
:101800000000000955555800095600000095560083
:101810000295556800095580000000020000000094
:10182000000AAAAAA8000AAA0000002AAA00002A00
:10183000AA80000AAA80000000000000000000004A
:101840000000000000000000000000000000000098
:101850000000000000000000000000000000000088
:101860000000000000000000000000000000000078
:101870000000000000000000000000000000000068
:101880000000000000000000000000000000000058
:101890000000000000000000000000000000000048
:1018A0000000000000000000000000000000000038
:1018B000000000000000000000000A82A000000AF2
:1018C0000000000000154000005000000000000073
:1018D0000000000000000000020080000002000084
:1018E0000000004041000010000000000000000067
:1018F0000000000000000200800000020000000064
:101900000040010000100000000000000000000086
:101910000000000002008AA80A02A00A82820015C4
:101920000555151014000000000000000000000024
:101930000000020088202082082020880000410446
:101940000410410000000000000000000000000042
:10195000020080802A82082020200000410110100F
:101960005500000000000000000000000000020020
:101970008208200208202088004041011010400009
:1019800000000000000000000000000000AA0AA8FB
:101990000A82A00A820A0055014040541500000046
:1019A0000000000000000000000000000000000037
:1019B00000000000000000004000000000000000E7
:1019C0000000000000000000000000000000000017
:1019D00000000000000040000000000000000000C7
:1019E00000000000000000000000000000000000F7
:1019F00000000005000000000000000000000000E2
:101A000000000000000000000000000000000000D6
:101A100000000000000000000000000000000000C6
:101A200000000000000000000000000000000000B6
:101A300000000000000000000000000000000000A6
:101F200000000000000011241FBECFEFD0E1DEBF93
:101F3000CDBF14BE88E10FB6F89480936000109274
:101F400060000FBE11E0A0E0B1E0E8E7F3E402C0FA
:101F500005900D92AC36B107D9F71FE0ACE6B1E0C1
:101F600001C01D92A238B107E1F70E943E198823F3
:101F700011F40E945419F894EAECFCE080E8819393
:101F80009EE0E63DF907D9F78AEC9CE09093D70EE6
:101F90008093D60E1092D80E1092DB0E1092E50EA2
:101FA0001092EF0E1092F90E91E09093FB0E909329
:101FB000FC0E9093FA0E1092810015BC8FEF87B93A
:101FC00084B988E98AB95C9A8CE081B98BEF82B9CF
:101FD0001092B00C86E08093B10C109285001092A4
:101FE000840083E0809389008DE88093880089E0F5
:101FF0008093810082E080936F0082E484BD17BCEF
:1020000095BD83E88093B0001092B3009093B10027
:1020100081E185B91092C50C1092B40C1092B50CE8
:102020001092C00C1092BF0C1092C40C1092C30CF2
:102030001092C80C0E94F21880E00E94D31880FF12
:1020400003C084E00E94D0180E94BE1878940E94B9
:10205000BE180E9457210C94BA210C940000ABE6E4
:10206000B1E01197F1F700C00000CCE6D1E04427C1
:10207000CAD034E43A95F1F715D037E23A95F1F742
:10208000000040FDC25E40FDDF4F4395403C81F7BC
:102090000000B9D0E1E0E093B20CE2E0E09336005A
:1020A00011240895BE013CEABCE02EE10991A02F65
:1020B000A295A695A695A370A30F0C9008B800C092
:1020C0000000A02FA295A370A30F0C90000008B8E9
:1020D000000000C0A02FA695A695A370A30F0C909A
:1020E00008B800C0A02FA370A30F0C9009912A95E7
:1020F00008B8E9F6C895C895002400C008B8EB01F7
:102100000895111120112E11851028980E949A12FD
:10211000EBE0EA95F1F700C0E7E0E0938900EBE13E
:10212000E0938800E0E0F6E0BED0289AE0FF30D0EF
:10213000E0FF2DC02F933F934F935F936F937F9357
:102140008F939F93AF93BF9378941124E091B60C33
:10215000F091B70CE115F10509F009950E94BE1840
:102160000E942D190E94C7111124E091B80CF09122
:10217000B90CE115F10509F00995BF91AF919F9157
:102180008F917F916F915F914F913F912F91089522
:10219000EF93E091B10CE93D80F4E93770F0EDE1A7
:1021A000FF2700800F92EA95E1F70E942F10E1E0EF
:1021B000FF270F900192EE31E0F3EF910895FF9326
:1021C000EF93EFB7EF93E0918400EE50F1E0EF175B
:1021D00000F0F395FA30D8F305D0EF91EFBFEF910F
:1021E000FF9118950F921F92E2E0F1E20090B00C7F
:1021F000000C1124E00DF11D05901490F0010995DB
:102200001F900F90089528980E949A12E5E1EA9590
:10221000F1F7E091B10CEA95E093B10C289A00C077
:10222000089528980E94BC12289A0000E1E0F6E088
:102230003AD0E3E0E0938900EDE8E0938800089568
:1022400028980E94BC12E9EA0000EA95E9F700C06C
:102250000000F6E0E2E027D0289A089528980E942E
:10226000BC12289A0000E3E0FDEF1DD0E091B10C14
:10227000E53091F4E091B30CE1300000F091C50C31
:1022800019F4F091C50CF195E3E0E0938900EDE8D5
:10229000EF0FE09388000895E3E0E0938900EDE814
:1022A000E093880008950090B10C0A9410905F00AC
:1022B00011FC0F2E0092B10C0090B00C11FC0E2EF0
:1022C0000092B00CE0E011FCE1E008950000000095
:1022D00000000000000000000000000000000000FE
:1022E00000000000000000000000000000000000EE
:1022F00000000000000000000000000000000000DE
:1023000099277727833008F00895ECE8F5E2660F07
:10231000771FE60FF71FA591B491EBEDFEE02AE0E1
:10232000289FE00DF11DA183B2831124089590919F
:10233000FA0E9170880F892B8093FA0E08959927D1
:102340007727EBEDFEE02AE0289FE00DF11D6E3FC0
:1023500031F46091FA0E6E7F6093FA0E0BC06F3FFE
:1023600031F46091FA0E6E6F6093FA0E03C077E25B
:10237000760F75831124089599277727EBEDFEE0FA
:102380002AE0289FE00DF11D6083112408950E942A
:10239000AA1A0090D80E002019F4AAECBCE002C0E2
:1023A000A0EDBDE021E002260092D80E22E02093AD
:1023B000D90E2F923F924F925F926F927F928F929F
:1023C0009F92AF92BF92CF92DF92EF92FF920F93C4
:1023D0001F93CF93DF935091F90E6091FB0E709194
:1023E000FC0E8091FD0E2090DC0E3090DD0E4090B2
:1023F000DF0E5090E00E6090DE0E1091DB0E7090BC
:10240000E60E8090E70E9090E80EA090E90EB09056
:10241000EA0E2091E50EC090F00ED090F10EE09003
:10242000F30EF090F40E0091F20E3091EF0E9FEF4C
:10243000620C431CF2014491410300240008C12DA9
:10244000D02D970CA81CF5014491420300240008EC
:10245000C10DD01D0C0DED1CF70144914303002468
:102460000008C10DD01D8A956AF44091FA0E842FA0
:102470008695062E0694062600FA7695679576F9D7
:1024800040FF66F940E860FD4FE74503002400087F
:10249000C10DD01D0024C038D0050CF0CFE70A9440
:1024A000C038D0050CF4C0E8C058CD939A9509F017
:1024B000BFCF4091D90E4A954093D90E97E009F0CD
:1024C000B7CF6092DE0E4092DF0E9092E80EA0929F
:1024D000E90E0093F20EE092F30E6093FB0E709300
:1024E000FC0E8093FD0EDF91CF911F910F91FF9015
:1024F000EF90DF90CF90BF90AF909F908F907F90A4
:102500006F905F904F903F902F900895E091D60E7E
:10251000F091D70E019100000093B3000EE0E63D6C
:10252000F0070AEC1CE008F0F801E093D60EF093F7
:10253000D70E08950C949C120C949E120F931F9327
:102540002F93E091D60EF091D70E01910093B30036
:102550000EE0E63DF00708F400C010F0EAECFCE005
:10256000E093D60EF093D70E26E02A95F1F700C03F
:102570002F911F910F9108950000E091B10CE0FFA1
:10258000DDCFE1E1EA95F1F700C0089522002400D3
:10259000260028002B002D003000330036003900C3
:1025A0003D004000440048004C00510056005B00D4
:1025B000600066006C007300790081008800900064
:1025C0009900A200AC00B600C100CC00D800E50024
:1025D000F3000101100121013201440157016C0196
:1025E00081019801B001CA01E50102022102410204
:1025F00064028802AE02D70203033003610394032E
:10260000CB03050442048304C70410055D05AF0530
:1026100005066106C2062907960709088308050909
:102620008E09200ABA0A5D0B0A0CC10C840D510EEA
:102630002B0F121007110A121D1340147415BA162D
:1026400014188319071BA31C571E24200E221424C0
:1026500039267F28E82A752D293006330F3645396B
:10266000AD3C49401B442848734CFE50CF55EA5AB4
:1026700051600C661D6C8B725A799280378850902D
:10268000E598FDA19FABD3B5A3C0000000000000FA
:10269000000000000000000000000000000000003A
:1026A000000000000000000000000000000000002A
:1026B000000000000000000000000000000000001A
:1026C000000000000000000000000000000000000A
:1026D00000000000000000000000000000000000FA
:1026E00000000000000000000000000000000000EA
:1026F00000000000000000000000000000000000DA
:10270000000306090C101316191C1F2225282B2E56
:10271000313336393C3F414447494C4E515355586B
:102720005A5C5E60626466686A6B6D6F7071737428
:10273000757678797A7A7B7C7D7D7E7E7E7F7F7FE1
:102740007F7F7F7F7E7E7E7D7D7C7B7A7A797876C7
:1027500075747371706F6D6B6A68666462605E5CDD
:102760005A585553514E4C494744413F3C393633F2
:10277000312E2B2825221F1C191613100C090603B5
:1027800000FDFAF7F4F0EDEAE7E4E1DEDBD8D5D2BC
:10279000CFCDCAC7C4C1BFBCB9B7B4B2AFADABA887
:1027A000A6A4A2A09E9C9A9896959391908F8D8CAA
:1027B0008B8A8887868685848383828282818181D1
:1027C0008181818182828283838485868687888ACB
:1027D0008B8C8D8F9091939596989A9C9EA0A2A495
:1027E000A6A8ABADAFB2B4B7B9BCBFC1C4C7CACD60
:1027F000CFD2D5D8DBDEE1E4E7EAEDF0F4F7FAFD7D
:10280000808182838485868788898A8B8C8D8E8F50
:10281000909192939495969798999A9B9C9D9E9F40
:10282000A0A1A2A3A4A5A6A7A8A9AAABACADAEAF30
:10283000B0B1B2B3B4B5B6B7B8B9BABBBCBDBEBF20
:10284000C0C1C2C3C4C5C6C7C8C9CACBCCCDCECF10
:10285000D0D1D2D3D4D5D6D7D8D9DADBDCDDDEDF00
:10286000E0E1E2E3E4E5E6E7E8E9EAEBECEDEEEFF0
:10287000F0F1F2F3F4F5F6F7F8F9FAFBFCFDFEFFE0
:10288000000102030405060708090A0B0C0D0E0FD0
:10289000101112131415161718191A1B1C1D1E1FC0
:1028A000202122232425262728292A2B2C2D2E2FB0
:1028B000303132333435363738393A3B3C3D3E3FA0
:1028C000404142434445464748494A4B4C4D4E4F90
:1028D000505152535455565758595A5B5C5D5E5F80
:1028E000606162636465666768696A6B6C6D6E6F70
:1028F000707172737475767778797A7B7C7D7E7F60
:1029000000020406080A0C0E10121416181A1C1ED7
:1029100020222426282A2C2E30323436383A3C3EC7
:1029200040424446484A4C4E50525456585A5C5EB7
:1029300060626466686A6C6E70727476787A7C7EA7
:102940007F7D7B79777573716F6D6B696765636187
:102950005F5D5B59575553514F4D4B494745434177
:102960003F3D3B39373533312F2D2B292725232167
:102970001F1D1B19171513110F0D0B090705030157
:10298000FFFDFBF9F7F5F3F1EFEDEBE9E7E5E3E147
:10299000DFDDDBD9D7D5D3D1CFCDCBC9C7C5C3C137
:1029A000BFBDBBB9B7B5B3B1AFADABA9A7A5A3A127
:1029B0009F9D9B99979593918F8D8B898785838117
:1029C00080828486888A8C8E90929496989A9C9E17
:1029D000A0A2A4A6A8AAACAEB0B2B4B6B8BABCBE07
:1029E000C0C2C4C6C8CACCCED0D2D4D6D8DADCDEF7
:1029F000E0E2E4E6E8EAECEEF0F2F4F6F8FAFCFEE7
:102A00007F7F7F7F7F7F7F7F7F7F7F7F7F7F7F7FD6
:102A10007F7F7F7F7F7F7F7F7F7F7F7F7F7F7F7FC6
:102A20007F7F7F7F7F7F7F7F7F7F7F7F7F7F7F7FB6
:102A30007F7F7F7F7F7F7F7F7F7F7F7F7F7F7F7FA6
:102D00000309131E28313A40464C5054585B5E610B
:102D1000636567696B6C6E6F7071727374757677CB
:102D2000777879797A7A7B7B7C7C7C7D7D7D7E7EF1
:102D30007E7E7F7F7F7F7F7F7F7F7F7F7F7F7F7FA5
:102D40007F7F7F7F7F7F7F7F7F7F7F7F7F7E7E7E96
:102D50007E7D7D7D7C7C7C7B7B7A7A7979787777C8
:102D6000767574737271706F6E6C6B696765636191
:102D70005E5B5854504C46403A31281E13090300FC
:102D8000C6CCD5DBDFE3E5E7E9EAEBECEDEEEFEF10
:102D9000F0F0F0F1F1F1F1F2F2F2F2F2F2F2F2F31C
:102DA000F3F3F3F3F3F3F3F3F3F3F3F3F3F3F3F3F3
:102DB000F3F3F3F3F3F3F3F3F3F3F3F3F3F3F3F3E3
:102DC000F3F3F3F3F3F3F3F3F3F3F3F3F3F3F3F3D3
:102DD000F3F3F3F3F3F3F3F3F3F3F3F3F3F3F3F3C3
:102DE000F2F2F2F2F2F2F2F2F1F1F1F1F0F0F0EFD0
:102DF000EFEEEDECEBEAE9E7E5E3DFDBD5CCC6008F
:102E000000283D42302D2C2B2C2D2E2F30323335E7
:102E100037393B3D3F414345484A4C4E5053555747
:102E2000595B5D5F61636567696B6C6E707173742C
:102E3000757778797A7B7C7D7D7E7E7F7F7F7F7FD3
:102E40007F7F7F7F7F7F7E7E7D7D7C7B7A797877B9
:102E500075747371706E6C6B69676563615F5D5BE0
:102E600059575553504E4C4A484543413F3D3B39D5
:102E700037353332302F2E2D2C2B2C2D30423D2840
:102E800000E9E5FED4D7D7D7D6D4D2D0CECCCAC8A5
:102E9000C6C3C1BFBDBAB8B6B4B1AFADABA9A7A5E3
:102EA000A3A19F9E9C9A999795949391908F8D8CB6
:102EB0008B8A8988888786858584848483838383B5
:102EC0008383838383848484858586878888898AAD
:102ED0008B8C8D8F909193949597999A9C9E9FA19E
:102EE000A3A5A7A9ABADAFB1B4B6B8BABDBFC1C3B6
:102EF000C6C8CACCCED0D2D4D6D7D7D7D4FEE5E96F
:102F0000F9F8F9F5EBE1DDDEE0E2E4E5E6E5E4E23F
:102F1000DED9D2CAC1B7ACA299918A86838180805A
:102F20008182838586888A8C8D8F909293959697DF
:102F300098999A9B9B9C9D9D9D9E9E9E9F9F9F9FC7
:102F40009F9F9F9E9E9E9D9D9D9C9B9B9A999897BF
:102F500096959392908F8D8C8A88868583828180C6
:102F6000808183868A9199A2ACB7C1CAD2D9DEE2A8
:102F7000E4E5E6E5E4E2E0DEDDE1EBF5F9F8F900B1
:102F80000708070B151F2322201E1C1B1A1B1C1EC3
:102F900022272E363F49545E676F767A7E7F7F7F89
:102FA0007F7E7D7B7A7876747371706E6D6B6A69E3
:102FB00068676665656464636362626261616161DA
:102FC00061616162626263636364656566676869C3
:102FD0006A6B6D6E7071737476787A7B7D7E7F7F9D
:102FE0007F7F7E7A766F675E54493F362E27221E9A
:102FF0001C1B1A1B1C1E2022231F150B0708070071
:103000001F313D444E5354565A5F64696E7476794D
:103010007C7F7F7F7F7F7F7F7F7F7F7F7F7F7F7FC3
:103020007F7F7F7F7F7F7F7F7F7F7F7F7F7F7F7FB0
:103030007F7F7F7F7F7F7F7F7F7F7F7F7F7F7F7FA0
:103040007F7F7F7F7F7F7F7F7F7F7F7F7F7F7F7F90
:103050007F7F7F7F7F7F7F7F7F7F7F7F7F7F7F7F80
:103060007F7F7F7F7F7F7F7F7F7F7F7F7F7F7F7F70
:103070007F7F7F7F7F7F7F7F7F7F7F7C7871684CC2
:103080002C1C120C0A0B0A05FDF3E9DFD4CAC0B7E9
:10309000AEA69E97918B868582808080808080807E
:1030A0008080808080808080808080808080808020
:1030B0008080808080808080808080808080808010
:1030C0008080808080808080808080808080808000
:1030D00080808080808080808080808080808080F0
:1030E00080808080808080808080808080808080E0
:1030F000808080808087919DACC4CBD4DDF2FAFAC9
:103100008837D8F46036C8F44370E82FFF27E3709F
:10311000EE0FE050FF4F7EE1869586959927679FD9
:10312000800D911D84599E4FDC016C91819190819D
:103130006823499F60296C93112408958837E0F42F
:103140006036D0F4E82FFF27E370EE0FE050FF4F1A
:103150007EE1869586959927679F800D911D8459FC
:103160009E4FDC018C91619170818623713011F04A
:10317000879F812D11240895882708950895E0E4FC
:10318000FBE0ACE6B1E060E06D933197E9F7112424
:1031900008958091B20C089511241092B20C0895F4
:1031A0008093C50C0895882329F48091BD0C9091DB
:1031B000BE0C08958091C10C9091C20C0895F999AC
:1031C000FECF92BD81BD60BDF894FA9AF99A7894C9
:1031D0000895F999FECF92BD81BDF894F89A80B513
:1031E00078940895129AC895C895129820E030E016
:1031F00080E090E040E03695279596958795139866
:10320000C895C895009B3068019B9068139AC89533
:10321000C8954F5F403179F73093BE0C2093BD0CB9
:103220009093C20C8093C10C8091BD0C9091BE0C08
:103230000F9731F08091C10C9091C20C0F9761F4FF
:1032400028E088E190E00FB6F894A895809360009C
:103250000FBE20936000FFCF08951092070F0099D2
:1032600003C081E08093070F019905C08091070F8B
:1032700082608093070F0E94F21808951F9380E0E8
:1032800090E00E94E918182F81E090E00E94E91870
:1032900090E0382F20E0210F311D2A55354509F4E3
:1032A00091E0892F1F910895CF93DF93C0E0D0E084
:1032B000FE01E059FF4FE491CE016E2F0E94DF180E
:1032C0002196C032D105A1F7C0E2D0E0CE016FEF68
:1032D0000E94DF18CE0101966FEF0E94DF18A096C2
:1032E00088E0C030D80791F7DF91CF91089590E042
:1032F00026E130E0829FF001839FF00D929FF00D58
:103300001124E65FF04F628708956093FA0E0895E6
:1033100090E026E130E0829FF001839FF00D929FC4
:10332000F00D1124E65FF04F13861182089590E0AE
:1033300026E130E0829FF001839FF00D929FF00D17
:103340001124E65FF04F81E0838B089590E026E141
:1033500030E0829FF001839FF00D929FF00D1124C9
:10336000E65FF04F6187089590E026E130E0829FAC
:10337000F001839FF00D929FF00D1124E65FF04F56
:103380006483089590E026E130E0829FF001839FFE
:10339000F00D929FF00D1124E65FF04F65830895C4
:1033A000DC01ED91FC911197AF014F5F5F4F1196DA
:1033B0005C934E93E4912E2F30E0E7FF13C02F77FC
:1033C00030703695322F222737952795FA014F5FB7
:1033D0005F4FE4918E2F8F77280F311DE7FDF1CFDE
:1033E0004D935C93C90108950E949F110895EF9237
:1033F000FF920F931F93CF93DF93182F062FF42E76
:10340000E22EC82FD0E086E190E0C89FF001C99F6E
:10341000F00DD89FF00D1124E65FF04F83858823CF
:1034200021F08181882309F08EC0EE2091F486E19D
:1034300090E0C89FF001C99FF00DD89FF00D1124B6
:10344000E65FF04F138A8285882309F07CC01086DE
:103450007AC0133059F481E091E09093FC0E809390
:10346000FB0E81E08093FA0E0F2D08C0812F60E0E3
:103470000E949F11812F6F2D0E9480110F3799F4A8
:1034800086E190E0C89FF001C99FF00DD89FF00D34
:103490001124E65FF04F8091670F878788E69FE0F1
:1034A000958B848B30C089E0089FC0011124E09186
:1034B000640FF091650FE80FF91F33964591549111
:1034C0004115510571F486E190E0C89FF001C99F54
:1034D000F00DD89FF00D1124E65FF04F158A148A85
:1034E00012C0FA01249186E190E0C89FF001C99FC3
:1034F000F00DD89FF00D1124E65FF04F27874F5F46
:103500005F4F558B448B86E190E0C89FF001C99FC7
:10351000F00DD89FF00D1124E65FF04F0487118263
:10352000E6E11E9FF0011124E65FF04F108A12863B
:103530009FEF9187E086138A118A81E08387128A40
:1035400014829683F282DF91CF911F910F91FF90A9
:10355000EF900895CF92DF92FF920F931F93CF9336
:10356000DF93E3E1FFE08181282F332727FD3095AA
:103570008081280F311D2F3F310519F014F02FEFF6
:1035800030E0C90137FF02C080E090E0808376968A
:103590004FE0EB36F40739F78091C90C882309F026
:1035A00028C144C1E0916D0FF0916E0F9F012F5F14
:1035B0003F4F30936E0F20936D0F44914F3F69F54D
:1035C000A9014F5F5F4F50936E0F40936D0FF9014C
:1035D00084918F3219F41092C90C19C1863009F008
:1035E000FBC0FA013196CF01019690936E0F809344
:1035F0006D0FE491E33529F49093710F8093700F70
:10360000EBC0E53409F0E8C08091700F9091710F24
:1036100090936E0F80936D0FDFC047FF02C0409301
:10362000660F542F5F70842F90E0807F9070803BF6
:10363000910531F1803C910581F18039910509F0C6
:1036400043C0C9010196F9014491019690936E0F10
:1036500080936D0F0197FC012491852F90E08C9F42
:10366000F0018D9FF00D9C9FF00D1124E65FF04F4F
:103670008081882309F4B0C0220F852F648553C050
:10368000C9010196F9014491019690936E0F8093C0
:103690006D0F0197FC01249153C02F5F3F4F309372
:1036A0006E0F20936D0F21503040F9012491852F2A
:1036B00090E08C9FF0018D9FF00D9C9FF00D1124E8
:1036C000E65FF04F248788C08091660F582F5F70A7
:1036D00090E0807F9070803B910541F1803C9105A6
:1036E00009F46EC08039910509F076C02F5F3F4F15
:1036F00030936E0F20936D0F21503040F9012491CB
:10370000852F90E08C9FD0018D9FB00D9C9FB00DB8
:103710001124A65FB04F8C91882309F45DC0220F5D
:10372000852F1C966C910E94F71956C02F5F3F4F52
:1037300030936E0F20936D0F21503040F90124918A
:10374000473071F4852F90E08C9FF0018D9FF00D34
:103750009C9FF00D1124E65FF04F220F27833CC0A1
:103760004B3071F4852F90E08C9FF0018D9FF00D10
:103770009C9FF00D1124E65FF04F220F26832CC092
:103780004C3571F4852F90E08C9FF0018D9FF00DEA
:103790009C9FF00D1124E65FF04F220F24831CC084
:1037A0004436D1F4852F90E08C9FF0018D9FF00D71
:1037B0009C9FF00D1124E65FF04F220F25830CC073
:1037C000852F90E08C9FF0018D9FF00D9C9FF00D58
:1037D0001124E65FF04F44878DE69FE00E94D019E8
:1037E00090936C0F80936B0F1092630F1092620F87
:1037F00002C0C6E1D0E06091620F7091630F8091CA
:103800006B0F90916C0F6817790709F4CBCE6F5F3F
:103810007F4F7093630F6093620F8091680F909158
:10382000690F01969093690F8093680F0BED1EE06E
:10383000CBE0DFE0FF24BFEFCB2ED12C8A89882399
:1038400009F05EC08B899C89892B09F456C09F853D
:103850008E85981708F04CC050C08B852B893C8909
:103860008F37E9F4D9018D91BC8BAB8B8F3F01F180
:10387000F90161811196BC8BAB8BE82FF0E0EE0F64
:10388000FF1FE057FF4F0190F081E02D8F2D09952C
:10389000EB89FC8981918E87FC8BEB8B28C0A90179
:1038A0004F5F5F4F5C8B4B8BF90184918F3F21F40D
:1038B00018821C8A1B8A21C04F5F5F4F5C8B4B8B29
:1038C00041505040FA01649190E0880F991F805751
:1038D0009F4FFC01259134918F2DF9010995EB89BA
:1038E000FC893196FC8BEB8B3197E491EE871F8638
:1038F0009F858E85981709F4B0CF8F858F5F8F874E
:103900008A85882319F420E030E06BC088898F3FD6
:1039100011F08F5F888B9F81992309F45CC0288503
:10392000222309F458C08E81882309F454C04091A1
:103930006A0F442309F44FC0899FC00111248050AD
:103940009F4F892F992730E0B901869F9001879F6B
:10395000300D969F300D112420503F4F232F3327D9
:103960008D8190E0FC012E9FC0012F9F900D3E9F06
:10397000900D112480509F4F892F9927242F30E0DC
:10398000AC01429FC001439F900D529F900D1124A6
:1039900080509F4F292F33278B818823F1F0EA81B4
:1039A000F0E0E050F94DE491E058E89FC0011124A7
:1039B00080509F4F892F9927B601681B790B629F12
:1039C000C001639F900D729F900D112480509F4FF6
:1039D000292F332702C020E030E08A819C81890FA3
:1039E0008A83F8012083F394065F1F4F6696F4E004
:1039F000FF1609F023CFDF91CF911F910F91FF9018
:103A0000DF90CF900895FF920F931F93082FF62E0B
:103A10000E94801110E08BE090E0089FF001099F68
:103A2000F00D189FF00D1124EE0FFF1FE45FF04F13
:103A3000F0821F910F91FF900895962F482F50E02C
:103A40002BE030E0429FF001439FF00D529FF00DBC
:103A50001124EE0FFF1FE45FF04F6081691B60834C
:103A60000E9480110895482F50E02BE030E0429FE3
:103A7000F001439FF00D529FF00D1124EE0FFF1F38
:103A8000E45FF04F9081690F60830E948011089578
:103A90000F931F93CF93DF938C01C0E0D0E007C05A
:103AA0000E94C9188823E1F30E94CC182196C01700
:103AB000D107B4F3DF91CF911F910F910895282F73
:103AC00087FD2D5F25952595552747FD509584E069
:103AD000440F551F8A95E1F74A555F4F8EE1680202
:103AE000C0011124332727FD3095DC01A20FB31F3D
:103AF000A459BE4F280F391F245A3D4FFA01849113
:103B00008C934F5F5F4FFA01849111968C931197BC
:103B10004F5F5F4F5E96A217B30781F70895FF923C
:103B20000F931F93082FF62E142F17FD495F45950D
:103B300045954595405D802F6F2D0E945F1D812F1B
:103B400068E00E94AD21905D802F885F6F2D492F26
:103B50000E945F1D1F910F91FF900895282FA0E0F4
:103B6000772767FD709527FD8D5F8595859599274A
:103B700087FD9095FB0145E0EE0FFF1F4A95E1F7A9
:103B8000660F771FE61BF70BE80FF91FE459FE4F8E
:103B9000408150E0822F64E00E94AD21990F20EC1B
:103BA00030E002C0359527959A95E2F742235323DA
:103BB000452B09F4A1E08A2F0895AF92BF92CF92CE
:103BC000DF92EF92FF920F931F93DF93CF9300D07A
:103BD00000D0CDB7DEB7F82EE62ED42EC22E8983C4
:103BE0006A834B832C8300E010E05E010894A11CE3
:103BF000B11C57C0F501E60FF71F2081FB01E4550A
:103C0000F34F822F86958695869590E08770907009
:103C1000089FA001099F500D189F500D1124B3E07B
:103C200055954795BA95E1F7440F440F440F822FFD
:103C300090E087709070DC010A9FC0010B9F900D8F
:103C40001A9F900D1124A3E095958795AA95E1F709
:103C5000482B22952695277030E026703070029F01
:103C6000C001039F900D129F900D112453E0959574
:103C700087955A95E1F7867090708295880F807EBF
:103C8000482B40836F5F7F4F6430710509F0B2CFDE
:103C900083E090E00E94481D0F5F1F4F093011051F
:103CA00019F060E070E0A6CFF092AC0CE092AD0CA1
:103CB000D092AE0CC092AF0C0F900F900F900F905F
:103CC000CF91DF911F910F91FF90EF90DF90CF90F8
:103CD000BF90AF900895EF92FF920F931F93DF93E1
:103CE000CF9300D000D0CDB7DEB78091AC0C8983E4
:103CF0008091AD0C8A838091AE0C8B838091AF0C48
:103D00008C8382E390E00E94481D08E010E07E0171
:103D10000894E11CF11C58C0F701E60FF71F208141
:103D2000FB01E455F34F822F86958695869590E0AA
:103D300087709070089FA001099F500D189F500D2B
:103D40001124A3E055954795AA95E1F7440F440F38
:103D5000440F822F90E087709070DC010A9FC001B1
:103D60000B9F900D1A9F900D112433E09595879528
:103D70003A95E1F7482B22952695277030E026707A
:103D80003070029FC001039F900D129F900D11246F
:103D900023E0959587952A95E1F786709070829536
:103DA000880F807E482B40836F5F7F4F64307105A2
:103DB00009F0B2CF83E090E00E94481D015010400E
:103DC000BFEF0F3F1B0719F060E070E0A5CF0E9426
:103DD000BF1885E090E00E94481D0F900F900F9053
:103DE0000F90CF91DF911F910F91FF90EF90089569
:103DF000CF92DF92EF92FF920F931F93C62ED42E95
:103E0000E22EF02E082F0FC0802F612F0E94AE1DD2
:103E1000882329F4802F612F4F2D0E9480181F5F67
:103E20001E1594F30F5F0D1514F41C2DF9CF1F917F
:103E30000F91FF90EF90DF90CF90089580E00E9467
:103E4000D3189C019093730F8093720F40917A0F57
:103E500050917B0FCA018095909582239323909374
:103E60007F0F80937E0FC9018095909584239523C1
:103E70009093770F8093760F30937B0F20937A0F78
:103E800081E00E94D3189C019093750F8093740F6A
:103E900040917C0F50917D0FCA01809590958223AF
:103EA00093239093810F8093800FC9018095909503
:103EB000842395239093790F8093780F30937D0F0F
:103EC00020937C0F08952F923F924F925F926F92B2
:103ED0007F928F929F92AF92BF92CF92DF92EF929A
:103EE000FF920F931F93DF93CF93CDB7DEB7289741
:103EF0000FB6F894DEBF0FBECDBF1092AC0C80ECB5
:103F00008093AD0C8EE08093AE0C8FEF8093AF0C5E
:103F10000E94BF1810E0812F60E043E00E948018EB
:103F2000812F6FE543E00E9480181F5F183799F7D3
:103F300010E080E0612F43E00E94801887E7612F46
:103F400043E00E9480181F5F103699F784E189834F
:103F500083E68A8381E08B838FEF8C838FE28D836E
:103F60008E831F8218863324442422242A9481E0DD
:103F700090E00E94481D0E941E1F8EE7A82E8FE031
:103F8000B82E3E010894611C711C05E0802E912C16
:103F90008C0E9D1E13E0C12ED12CCC0EDD1EB7E081
:103FA000EB2EF12CEC0EFD1E55245394F50190815F
:103FB00094FF08C0F7018081181624F0F6011082E2
:103FC000F701208295FF09C0F701808187FD05C0B8
:103FD000F601108281E0F701808397FF08C0F601A7
:103FE000808187FD04C081E08083F701108296FF05
:103FF00007C0F601808118161CF02082F70110829C
:10400000F3011081F4010081812F602F452D0E9462
:104010008018F60181916F01810FF30181933F01B7
:10402000F70181917F01800FF40181934F0182E0BC
:1040300090E0A80EB91E539493E0591609F0B6CF3C
:10404000F980ED808F2D6E2D0E94AE1D882311F416
:10405000332433940A811E81802F612F0E94AE1D6C
:10406000882311F444244394332031F0442011F088
:1040700083E005C082E003C0442009F181E0809321
:10408000040F0E946B1E82E08093030F28960FB6E8
:10409000F894DEBF0FBECDBFCF91DF911F910F917E
:1040A000FF90EF90DF90CF90BF90AF909F908F9058
:1040B0007F906F905F904F903F902F9008958F2D3D
:1040C0006E2D43E00E948018802F612F43E00E94F4
:1040D00080184DCFCF92DF92EF92FF920F931F93F4
:1040E000CF93DF93C62EF42ED52E2F2D352F890199
:1040F000C0E0D0E0E82EEF180CC08E2D800F880FA6
:10410000880F880F6C2DF80141918F010E945F1D6F
:104110002196AF2DBD2DFD0101900020E9F73197CB
:10412000EA1BFB0BCE17DF0740F3DF91CF911F9106
:104130000F91FF90EF90DF90CF9008958091040F42
:10414000833039F480E06CE240E151E00E946A2063
:104150000DC0813059F480E06CE24DE151E00E94E5
:104160006A208091050F8F5F8093050F8091040F67
:10417000823059F480E06CE249E251E00E946A200A
:104180008091060F8F5F8093060F80E06FEF40E015
:1041900020E00E94DD1D8AE090E00E94481D109200
:1041A000030F0E946B1E0895FF920F931F9380E0F0
:1041B00090E0FC01EA51FC4EE491DC01A459BE4FB1
:1041C000EC9301962BE08034920799F780E067E545
:1041D00045E351E00E946A2080E069E345E451E054
:1041E0000E946A2080E063E442E551E00E946A2078
:1041F00080E067E54EE551E00E946A2088E367E5CC
:104200004AE30E945F1D80E467E54091060F0E942B
:104210008F1D88E267E54091050F0E948F1D8091F8
:104220006B01813019F410926B0106C080E06FEFD2
:104230004EE020EC0E94DD1DFF2410E01FC081E055
:1042400090E00E94481D0E941E1F80917E0F83FFF8
:1042500009C0FF24F39480E067E540E12FE503E027
:104260000E94F81E8091800F83FF08C011E087E64E
:1042700067E547E72FE502E00E94F81EFF20F9F20C
:104280001123E9F20E946B1E81E08093030F80E00E
:104290006CE241E651E00E946A208EE190E00E94CB
:1042A000481D0E94BF181F910F91FF9008950E9412
:1042B000BF1884E00E94D01880E090E0FC01EA552D
:1042C000F74FE491DC01A459BE4FEC9301962BE02B
:1042D0008034920799F780E06FE24DE02FEF0E9463
:1042E000DD1D8CE390E00E94481D0E946B1E80E063
:1042F00090E0FC01EA51FC4EE491DC01A459BE4F70
:10430000EC9301962BE08034920799F780E06FEFF1
:104310004EE020EC0E94DD1D8EE190E00E94481DE1
:104320008091030F882319F40E94D420F9CF8130A3
:1043300019F40E94631FF4CF823091F70E949E20EF
:10434000EFCF991B79E004C0991F961708F0961BD0
:10435000881F7A95C9F78095089587FB082E062651
:1043600087FD819567FD6195ECDF0EF4919507FC63
:0843700081950895F894FFCF38
:104378003F40CF10F304FC01C00430100C4003018F
:104388002020205469652047616D65210020202088
:1043980020503120576F6E210020202020503220DD
:1043A800576F6E2100202020202020202020202050
:1043B80020205032002020205265616479205570F9
:1043C8002100202020202873746172742900503144
:0C43D80000202020202020476F21000141
:00000001FF
